:020000040800F2
:1000000000500020A9760008097700080977000849
:100010000977000809770008097700080000000048
:100020000000000000000000000000000977000848
:10003000097700080000000009770008816C0008BB
:100040000977000809770008097700080977000890
:100050000977000809770008B9750008BF7500081E
:10006000C5750008CB750008D17500080977000830
:100070000977000809770008097700080977000860
:10008000097700080977000809770008358F00080C
:10009000298F00080977000809770008D77500083C
:1000A00009770008A97A000809770008BD7A0008D6
:1000B000C17A0008D57A0008E97A000809770008B3
:1000C0000977000809770008097700080977000810
:1000D00009770008CD740008E57400080175000870
:1000E000ED75000809770008398F0008000000004E
:1000F0000000000000000000000000000000000000
:0C01000000000000000000005FF808F1A3
:10010C00034613F8012B002AFBD1181A013870474B
:10011C0010B5054C237833B9044B13B10448AFF335
:10012C0000800123237010BD10020020000000008D
:10013C00509C000808B5034B1BB103490348AFF3AF
:10014C00008008BD0000000014020020509C000834
:10015C0038B5C82204460D469830002109F0CCFB76
:10016C004FF0FF334FF0FF32C4E92823C4E92A23B0
:10017C00C4E93623C4E93E23C4E94823C4E94E2329
:10018C000023AD08C5F1C805C4F89030C4F89450EC
:10019C0038BD00002DE9F04FCBB0CDE90223D0F8EB
:1001AC009040039B00901B1B93423691009B0AD9F5
:1001BC00181909F093FB029B1C44009BC3F8904058
:1001CC004BB0BDE8F08FD3F898300493009BD3F874
:1001DC009C300593009BD3F8A0300E93009BD3F872
:1001EC00A4300F93009BD3F8A8301493009BD3F842
:1001FC00AC301593009BD3F8B0301C93009BD3F814
:10020C00B4301D93009BD3F8B8302293009BD3F8E5
:10021C00BC302393009BD3F8C0300693009BD3F8DB
:10022C00C4300793009BD3F8C8301093009BD3F8CD
:10023C00CC301193009BD3F8D0301693009BD3F89D
:10024C00D4301793009BD3F8D8301E93009BD3F86F
:10025C00DC301F93009BD3F8E0302493009BD3F841
:10026C00E4302593009BD3F8E8300893009BD3F837
:10027C00EC300993009BD3F8F0301293009BD3F829
:10028C00F4301393009BD3F8F8301893009BD3F8F9
:10029C00FC301993009BD3F800312093009BD3F8CA
:1002AC0004312193009BD3F808312693009BD3F89B
:1002BC000C312793009BD3F810310A93009BD3F891
:1002CC0014310B93009BD3F818310C93009BD3F88B
:1002DC001C310D93009BD3F820311A93009BD3F85B
:1002EC0024311B93009BD3F828312E93009BD3F819
:1002FC002C312F93009BD3F830313293009BD3F8E1
:10030C0034313393009BD3F838312893009BD3F8C6
:10031C003C312993009BD3F840312A93009BD3F8AE
:10032C0044312B93009BD3F848312C93009BD3F88A
:10033C004C312D93009BD3F850313093009BD3F864
:10034C0054313193009BD3F858313493009BD3F83C
:10035C005C313593029B002B03F04D85039B369942
:10036C001D1B029B9D4228BF1D46009B2A46181947
:10037C0009F0B4FA369B2C442B443693029B5B1B3E
:10038C000293039BA342E5D10499009BD3E900237C
:10039C005140059A04915A400E99009B0592D3E95D
:1003AC00022351400F9A0E915A401499009B0F92C0
:1003BC00D3E904235140159A14915A401C99009B7F
:1003CC001592D3E9062351401D9A1C915A4022994B
:1003DC00009B1D92D3E9082351402291239A069940
:1003EC005A40009B2392D3E90A235140079A069165
:1003FC005A401099009B0792D3E90C235140119A53
:10040C0010915A401699009B1192D3E90E2351403A
:10041C00179A16915A401E99009B1792D3E91023F4
:10042C0051401F9A1E915A40039B1F92482B56D045
:10043C002499009BD3E912235140259A24915A40C8
:10044C000899009B2592D3E914235140099A0891ED
:10045C005A401299009B0992D3E916235140139AE2
:10046C0012915A401899009B1392D3E918235140CA
:10047C00199A18915A40039B1992682B2FD02099E6
:10048C00009BD3E91A235140219A20915A40269976
:10049C00009B2192D3E91C235140279A26915A4064
:1004AC000A99009B2792D3E91E2351400B9A0A917B
:1004BC005A400C99009B0B92D3E9202351400D9A82
:1004CC000C915A40039B0D92882B08D01A99009BD3
:1004DC00D3E9222351401B9A1A915A401B92014B8B
:1004EC00019301E0689C00080E9B109A83EA0204B9
:1004FC000F9B119A83EA0200129B249A5C40139B77
:10050C0058400C9B5C400D9B58402A9B84EA03018D
:10051C002B9B4FEA410C43403793229B25985A4022
:10052C00239B4340269842402798434032984240B0
:10053C003398434034984240359843403893379B26
:10054C0016985F004CEAD37C389B47EAD1775F4022
:10055C00149B8CEA020C83EA000B159B179883EA18
:10056C00000A189B8BEA030B199B8AEA030A1A9B55
:10057C008BEA030B1B9B8AEA030A2C9B06988BEADB
:10058C00030B2D9B079C8AEA030A049B4FEA4A053E
:10059C00434005984FEA4B0680EA040908981E9CD4
:1005AC004340099845EADB7589EA00090A9846EA4E
:1005BC00DA7643400B9889EA000928984340299839
:1005CC005E4089EA00091C9885EA090580EA04085E
:1005DC001D981F9C80EA040E209888EA0008219838
:1005EC008EEA000E2E9888EA00082F988EEA000EEC
:1005FC00309888EA000831984FEA48048EEA000ED9
:10060C0044EADE744C404FEA4E00379940EAD87009
:10061C0048403899490041EAD271379138995200D3
:10062C0042EAD17282EA0B024FEA490B4BEAD37BC6
:10063C005B0043EAD97383EA0808049B37998CEA78
:10064C0003030493059B81EA0A017B400593069BF7
:10065C008BEA0E0E8CEA030A079B87EA0309089BB8
:10066C008CEA03030893099B87EA030B0A9B8CEA29
:10067C00030337930B9B7B400B93289B8CEA030C57
:10068C00299B5F400E9B73400E930F9B6B402893EE
:10069C00109B73402993119B6B401193129B7340D9
:1006AC001293139B6B4038930C9B734039930D9BA7
:1006BC006B403A932A9B5E402B9B5D40149B63409E
:1006CC002A93159B43402B93169B63403B93179B9C
:1006DC0043403C93189B63403D93199B43403E938E
:1006EC001A9B63403F931B9B434040932C9B5C4065
:1006FC002D9B58401C9B53402C931D9B4B402D9382
:10070C001E9B534041931F9B4B404293209B534055
:10071C004393219B4B4044932E9B53402E932F9BF2
:10072C004B402F93309B53403093319B4FEA1A72BE
:10073C005940229B88EA03033193239B8EEA0303DF
:10074C004593249B88EA03034693259B8EEA030377
:10075C004793269B88EA03034893279B8EEA03035F
:10076C004993329B88EA03033293339B8EEA03034B
:10077C003393349B88EA0308359B8EEA0303349346
:10078C0042EA09134FEA1979069349EA0A130793C7
:10079C00089B4FEACB0242EA53730993089B0B9ACE
:1007AC00DB0043EA5B730893379B4FEA850EDB0D46
:1007BC0043EA42230A93D30D379A4FEAD40B43EA08
:1007CC0042230B93BB0443EA9C334FEA8C4C0D93AE
:1007DC004CEA97330C93289B0E9A5B0043EAD27336
:1007EC000F93289B4FEA420949EAD3730E93299B36
:1007FC00119A1B0D43EA02331093130D299A4BEAFD
:10080C00407B43EA02331193389B129A9B0243EAD2
:10081C00925313939302389AC00843EA925312935B
:10082C00399B3A9ADB0C43EA42331493D30C399A32
:10083C0040EA447443EA423315934EEA9673B60089
:10084C00179346EA957316932A9B2B9A9B0843EAB7
:10085C008273189393082A9A43EA827319933C9BE8
:10086C003B9A9B0143EA92631B9393013C9A43EAA4
:10087C0092631A933D9B3E9A5B0D43EAC2231C93F1
:10088C003D9B570D47EAC3231D93409B3F9ADB03C7
:10089C0043EA52431F93D303409A429843EA52438C
:1008AC001E932D9B2D9A1E072C9B46EA13161B0795
:1008BC0043EA1213419A2093520A42EAC0522192FF
:1008CC00419A400A40EAC2522292449A43985206F4
:1008DC0042EAD0122492449A400640EAD212239261
:1008EC002F9A4FEA42592E9A49EAD22950052F9A4B
:1008FC0040EAD220309A120A42EA016225920A0A90
:10090C00309942EA01622692459A4FEAC26A319ABC
:10091C00499D4AEA52122892319ADDF8CCC04FEA2E
:10092C00C26E459A109B4EEA52122792479A4FEA92
:10093C00883E1705469A47EA12371105479A41EA4D
:10094C001231489A520E42EAC51229926A0E489DFB
:10095C0042EAC5122A92339A1502329A45EA126576
:10096C00120242EA1C62DDF8D0C04FEA8C3C4CEA21
:10097C00984CDDF8D0804EEA984EDDF8708060EA35
:10098C00080ADDF874808AEA030A119B69EA0808F0
:10099C0088EA03032C931C9BCDF8ACA000EA0E0A4A
:1009AC008AEA03032D931D9B09EA0C0888EA0303CA
:1009BC002E93049B43EA0E0A059B43EA0C088AEA31
:1009CC0000032F9388EA09033093049B109803EAE1
:1009DC000008059B1198184088EA0E03319380EAB1
:1009EC000C033293089B149843EA010A099B43EACF
:1009FC000709209B8AEA0303339389EA060334939D
:100A0C00089B03EA000C099B159818408CEA01031B
:100A1C00359380EA07033793149B63EA0B0C159B01
:100A2C0063EA0400089B8CEA03030893099B434088
:100A3C000993209B44EA06004BEA030C149B3E40AE
:100A4C008CEA03031493159B43401593209BD043CE
:100A5C000B4083EA0B03209386EA040338931A9B1A
:100A6C00239C249E23431B9CE94344EA060B0E9CC7
:100A7C00634039930F9B8BEA03033A93239B03EA5E
:100A8C00020433461A9E2B4074403B941B9C6340DB
:100A9C003C930C9B0F9C23EA02020D9B23EA050559
:100AAC00239B53402393249B0E9A6B4024930C9BC3
:100ABC001A430D9B424023434B403E930E9B3D9269
:100ACC0003EA060923461B9A13400C9A89EA020290
:100ADC000C920D9A53400D931E9BDA431F9BD843E7
:100AEC00069B1299139C1940079B2340279C61403D
:100AFC000E9128991F9C4B400F931E99129B1943E2
:100B0C00139B2343069C61401A9107991F9C4B40F1
:100B1C001B931E99259B63EA0103269961EA040144
:100B2C00129C63401293139B289C4B401393279960
:100B3C00259B1940269B4A40234043401E921F93FD
:100B4C00279A069B1A43079B2A9943EA0409259B7B
:100B5C0053400693269B219A89EA03030793219B12
:100B6C00DE43229BDD43299B23EA020C2A9B229A1B
:100B7C0023EA0207189B299A8CEA03032593199BF5
:100B8C007B4026930A9B1A430B9B72400B436B4092
:100B9C0027922893169A0A9B03EA02040B9B179A36
:100BAC0003EA0200299B189A6340299380EA010307
:100BBC002A93169B19991343179A0A430A991D9C59
:100BCC004B400A930B9B229953400B93219A189BF1
:100BDC001340199A02EA0100169A0499534016938D
:100BEC00179B019A43401793019B52681B681C98F2
:100BFC004B4005994A401099014311984B4040EAEB
:100C0C000407109387EA020311933B9A359B83EAFE
:100C1C000204379B3C9A83EA02001A9B5C401B9BA4
:100C2C005840279B5C40289B58402B9B209A84EA79
:100C3C0003012C9B4FEA410C43400493319B3898A1
:100C4C005A40329B3A9C43400C9842400D9843408A
:100C5C0006984240079843401698424017984340E4
:100C6C000593049B29985F004CEAD37C059B47EACB
:100C7C00D1775F402D9B8CEA020C83EA000B2E9BF4
:100C8C002A9883EA000A089B39988BEA030B099B84
:100C9C008AEA030A239B8BEA030B249B8AEA030A46
:100CAC00129B8BEA030B139B4FEA4B068AEA030A4F
:100CBC00339B4FEA4A054340349845EADB7580EA9A
:100CCC0004090E9846EADA7643400F9889EA00093F
:100CDC001098149C4340119889EA000925984340C8
:100CEC0026985E4089EA00092F9885EA090580EA72
:100CFC0004083098159C80EA040E3D9888EA000898
:100D0C003E988EEA000E1E9888EA00081F988EEA1C
:100D1C00000E0A9888EA00080B984FEA48048EEAFD
:100D2C00000E44EADE744C404FEA4E00049940EA4F
:100D3C00D87048400599490041EAD271049105994F
:100D4C00520042EAD17282EA0B024FEA490B4BEA9B
:100D5C00D37B5B0043EAD97383EA0808109B0499A0
:100D6C0083EA0C030493119B8BEA0E0E7B400593D4
:100D7C00339B81EA0A0183EA0C031093349B83EAC8
:100D8C000709399B83EA0C0311933A9B83EA070BFF
:100D9C000E9B83EA0C030E930F9B7B400F93259BBA
:100DAC0083EA0C0C269B5F402B9B83EA060A2C9B48
:100DBC006B401893359B73401993379B6B401C9376
:100DCC003B9B73401D933C9B6B4021931A9B734040
:100DDC001A931B9B6B401B93279B5E40289B5D408B
:100DEC002D9B634022932E9B43402593089B63408D
:100DFC002693099B43402793239B63402393249B77
:100E0C0043402493129B63402893139B43402B93A2
:100E1C00299B5C402A9B58402F9B53402993309B25
:100E2C004B402A93149B53402C93159B4B402D9372
:100E3C003D9B53402E933E9B4B402F931E9B534008
:100E4C0030931F9B4B4033930A9B534034930B9B23
:100E5C005940319B83EA08033193329B83EA0E039A
:100E6C003293209B83EA08033593389B83EA0E0365
:100E7C0037930C9B83EA080338930D9B83EA0E038C
:100E8C003993069B83EA08033A93079B83EA0E0384
:100E9C003B93169B83EA0808179B83EA0E033C934B
:100EAC00109B4FEA850E1A0F42EA09130693109B0A
:100EBC004FEA197949EA03130793119B4FEACB02C6
:100ECC0042EA53730993119B0F9ADB0043EA5B735D
:100EDC0008930E9B4FEAD40BDB0D43EA42230A9393
:100EEC00D30D0E9A4BEA407B43EA42230B93BB048F
:100EFC0043EA9C334FEA8C4C0D934CEA97330C939A
:100F0C00189B1C9A5B0043EADA730F93189B4FEA09
:100F1C004A0A4AEAD3730E93199BC0081B0D43EA85
:100F2C0002331093130D199A40EA447443EA0233C6
:100F3C001193219B1D9A9B0243EA925313939302A4
:100F4C00219A43EA925312931A9B1B9ADB0C43EAA5
:100F5C0042331493D30C1A9A43EA423315934EEA54
:100F6C009673B600179346EA95731693229B259AAF
:100F7C009B0843EA827318939308229A43EA82737C
:100F8C001993279B269A9B0143EA92631B93930127
:100F9C00279A43EA92631A93239B249A5B0D43EAA4
:100FAC00C2231C93239B550D45EAC3231D932B9BF6
:100FBC00289ADB0343EA52431F93D3032B9A43EA49
:100FCC0052431E932A9B2D9A4FEA037C299B500A6D
:100FDC004CEA131C1D072A9B45EA13152C9B5B0A34
:100FEC0043EAC25320932C9B2E9A40EAC35321937D
:100FFC002F9B50065B0643EAD21323932F9B40EAA8
:10100C00D3132293339B4FEA4359309B49EAD3299C
:10101C005805339B40EAD320349B1A0A42EA0163F9
:10102C002493349B0A0A42EA03632593329B359A34
:10103C004FEAC36A319B16054AEA53132793319B37
:10104C0039994FEAC36E329B4EEA53132693379B62
:10105C004FEA883E1B0543EA1233379A289346EA37
:10106C001236389A520E42EAC11229924A0E389917
:10107C003B9F42EAC1122A923B9A109B11023A9A68
:10108C0041EA1261120242EA17623C9FBF0347EA2F
:10109C009847DDF8F0804EEA984EDDF8708060EAF3
:1010AC00080ADDF874808AEA030A119B69EA0808C9
:1010BC0088EA03032C931C9BCDF8ACA000EA0E0A23
:1010CC008AEA03032D931D9B09EA070888EA0303A8
:1010DC002E93049B43EA0E0A059B43EA07088AEA0F
:1010EC0000032F9388EA090310983093049B03EABA
:1010FC000008059B1198184088EA0E03319380EA8A
:10110C0007033293089B289843EA060A099B43EA93
:10111C0000098AEA0503339389EA0C033493089B8C
:10112C00149803EA0007099B1598184087EA0603F0
:10113C003593289B2E4043403793149B63EA0B074F
:10114C00159B63EA0400089B7B400893099B4BEAC0
:10115C00050743400993149B44EA0C007B4014930D
:10116C00159B229D43401593289BC8430CEA030C06
:10117C0086EA0B0328938CEA040338931A9B239E6C
:10118C002B431B9DD44345EA060B0E9D6B403993B4
:10119C000F9B8BEA03033A93229B03EA0205334627
:1011AC001A9E0B4075403B951B9D6B403C930C9BD2
:1011BC0023EA02020D9B23EA0101229B5340229356
:1011CC00239B0E9A4B4023930C9B0F991A430D9B18
:1011DC0062400B4343403E930E9B3D9203EA060A4A
:1011EC000B460C9A2B408AEA02020C920D9A129929
:1011FC0053400D931E9B139CDA431F9BD843069BB5
:10120C001940079B2340269C61400E9127991F9CF7
:10121C004B400F931E99129B1943139B2343069C1F
:10122C0061401A9107991F9C4B401B931E99249B5C
:10123C0063EA0103259961EA0401129C634012934D
:10124C00139B279C4B4013932699249B1940259B59
:10125C004A40234043401E921F93269A069B1A43F2
:10126C00079B43EA0409249B53400693259B209A31
:10127C0089EA03030793209BDE43219BDD43299BD3
:10128C0023EA020C2A9B219A23EA0207189B8CEA78
:10129C0003032493199B7B4025930A9B299A2A9933
:1012AC001A430B9B72400B436B4026922793169A62
:1012BC000A9B03EA02040B9B179A03EA0200299B80
:1012CC00189A6340299380EA01032A93169B199973
:1012DC001343179A0A430A994B400A930B9B219983
:1012EC0053400B93209A189B1340199A02EA010859
:1012FC00169A53401693179B019A88EA0303179387
:10130C00019B9B68D26804991C984B4005991D9CC5
:10131C004A401099014311984B4040EA0405109340
:10132C0085EA02031193269A3B9B83EA02043C9BB9
:10133C00279A83EA02002B9B069A5C402C9B584010
:10134C00359B5C40379B58401A9B84EA03011B9BDE
:10135C004FEA410C43400493289B07985A40389B12
:10136C004340169842401798434031984240329877
:10137C0043400C9842400D9843400593049B5F00FA
:10138C004CEAD37C059B47EAD1775F402298089BB7
:10139C003A9C83EA000B099B23988CEA020C83EAA3
:1013AC00000A2D9B39988BEA030B2E9B8AEA030AC1
:1013BC00129B8BEA030B139B8AEA030A299B8BEA89
:1013CC00030B2A9B4FEA4B068AEA030A339B4FEA2C
:1013DC004A054340349845EADB7580EA04090E98C7
:1013EC00149C43400F9846EADA7689EA000924985F
:1013FC004340259889EA00091098434011985E40B3
:10140C0089EA00092F9885EA090580EA04083098D2
:10141C00159C80EA040E1E9888EA00081F988EEA34
:10142C00000E3D9888EA00083E988EEA000E0A9855
:10143C0080EA08080B984FEA480480EA0E0E44EA4A
:10144C00DE744C404FEA4E00049940EAD870484094
:10145C000599490041EAD27104910599520042EA7A
:10146C00D17282EA0B024FEA490B4BEAD37B5B0049
:10147C0043EAD97383EA0808109B049983EA0C03A6
:10148C000493119B8BEA0E0E7B400593339B81EAF0
:10149C000A0183EA0C031093349B83EA0709399BF6
:1014AC0083EA0C0311933A9B83EA070B0E9B83EAA6
:1014BC000C030E930F9B7B400F93249B83EA0C0C25
:1014CC00259B5F402B9B83EA060A2C9B6B40189351
:1014DC00359B73401993379B6B401C933B9B73401C
:1014EC001D933C9B6B4020931A9B73401A931B9B40
:1014FC006B401B93269B5E40279B5D402D9B63405E
:10150C0021932E9B43402493089B63402593099B76
:10151C0043402693229B63402293239B4340239377
:10152C00129B63402793139B43402B93299B5C4056
:10153C002A9B58402F9B53402993309B4B402A9316
:10154C00149B53402C93159B4B402D933D9B534028
:10155C002E933E9B4B402F931E9B534030931F9BCF
:10156C004B4033930A9B534034930B9B5940319B14
:10157C0083EA08033193329B83EA0E033293289B50
:10158C0083EA08033593389B83EA0E0337930C9B4D
:10159C0083EA080338930D9B83EA0E033993069B69
:1015AC0083EA08033A93079B83EA0E033B93169B4B
:1015BC0083EA0808179B83EA0E033C93109B4FEABF
:1015CC00850E1A0F42EA09130693109B4FEA1979FC
:1015DC0049EA03130793119B4FEACB0242EA537378
:1015EC000993119B0F9ADB0043EA5B7308930E9BE4
:1015FC004FEAD40BDB0D43EA42230A93D30D0E9A28
:10160C004BEA407B43EA42230B93BB0443EA9C33F3
:10161C004FEA8C4C0D934CEA97330C93189B1C9A05
:10162C005B0043EADA730F93189B4FEA4A0A4AEAC3
:10163C00D3730E93199BC0081B0D43EA023310930E
:10164C00130D199A40EA447443EA02331193209B18
:10165C001D9A9B0243EA925313939302209A43EAF6
:10166C00925312931A9B1B9ADB0C43EA423314934A
:10167C00D30C1A9A43EA423315934EEA9673B6008A
:10168C00179346EA95731693219B249A9B0843EA79
:10169C00827318939308219A2D9843EA82731993B5
:1016AC00269B259A9B0143EA92631B939301269AEE
:1016BC0043EA92631A93229B239A5B0D43EAC2235B
:1016CC001C93530D229A43EAC2231D932B9B279AFA
:1016DC00DB0343EA52431F93D3032B9A43EA52434F
:1016EC001E932A9B2A9A1F07299B47EA13171B074D
:1016FC0043EA12132C9A2093520A42EAC0522192C6
:10170C002C9A400A40EAC25222922F9A2E985206E4
:10171C0042EAD012249242062F983B9E42EAD01203
:10172C002392339A109B4FEA4259309A49EAD229B4
:10173C005005339A40EAD220349A120A42EA0162E6
:10174C0025920A0A349942EA01622692329A399910
:10175C004FEAC26A319A4AEA52122892319A4FEAF7
:10176C00C26E329A4EEA52122792379A4FEA883E4C
:10177C001505359A45EA12354FEA025C379A4CEA60
:10178C00123C389A520E42EAC11229924A0E3899EA
:10179C0042EAC1122A923B9A11023A9A41EA126128
:1017AC00120242EA16623C9EB60346EA9846DDF8FF
:1017BC00F0804EEA984EDDF8708060EA080A8AEAFA
:1017CC00030ADDF87480CDF8ACA0119B69EA080817
:1017DC0088EA03032C931C9B00EA0E0A8AEA030393
:1017EC002D931D9B09EA060888EA03032E93049B9C
:1017FC0043EA0E0A059B43EA06088AEA00032F9384
:10180C0088EA090310983093049B03EA0008059BAF
:10181C001198184088EA0E03319380EA060332933C
:10182C00089B149843EA0C0A099B43EA0509209B80
:10183C008AEA0303339389EA07033493089B03EA88
:10184C000006099B1598184086EA0C03359380EA2C
:10185C0005033793149B63EA0B06159B63EA04009C
:10186C00089B73400893099B43400993209B44EACF
:10187C0007004BEA0306149B2F4073401493159BEF
:10188C00239D43401593209B249E03EA0C0383EA7B
:10189C000B03209387EA040338931A9BD4432B43FE
:1018AC001B9DC84345EA060B0E9D6B4039930F9B5D
:1018BC008BEA03033A93239B03EA020533461A9EF1
:1018CC000B4075403B951B9D6B403C930C9B23EA56
:1018DC0002020D9B23EA0101239B53402393249B7B
:1018EC000E9A4B4024930C9B0F991A430D9B62400C
:1018FC000B4343403D923E930E9B0C9A03EA060A1F
:10190C000B468AEA02020C920D9A2B4053400D931F
:10191C001E9B1299DA431F9B139CD843069B1940BC
:10192C00079B2340279C61400E9128991F9C4B409C
:10193C000F931E99129B1943139B2343069C6140E2
:10194C001A9107991F9C4B401B931E99259B63EA88
:10195C000103269961EA0401129C63401293139BC4
:10196C004B401393259B2799289C1940269B4A4052
:10197C00234043401E921F93279A069B2A991A4391
:10198C00079B43EA0409259B53400693269B219A07
:10199C0089EA03030793219BDE43229BDD43299BAA
:1019AC0023EA020C2A9B229A23EA0207189B299A03
:1019BC008CEA03032593199B7B4026930A9B1A43BD
:1019CC000B9B72400B436B4027922893169A0A9BF1
:1019DC0003EA0204179A0B9B03EA0200299B189A4C
:1019EC006340299380EA01032A93169B19991343A8
:1019FC00179A1C980A430A991D9C4B400A930B9BFF
:101A0C00229953400B93219A189B1340199A02EA7E
:101A1C000108169A049953401693179B019A88EA69
:101A2C0003031793019B52691B694B4005994A406C
:101A3C0010990843119943402143109381EA020302
:101A4C001193359B3B9A83EA0204379B3C9A83EAB9
:101A5C0002001A9B209A5C401B9B5840279B5C40C1
:101A6C00289B58402B9B84EA03012C9B4FEA410C8A
:101A7C0043400493319B38985A40329B43400C9816
:101A8C0042400D98434006984240079843401698B0
:101A9C004240179843400593049B29985F004CEAF9
:101AAC00D37C059B47EAD1775F402D9B8CEA020CD7
:101ABC0083EA000B2E9B2A9883EA000A089B8BEA88
:101ACC00030B099B8AEA030A239B8BEA030B249BD7
:101ADC008AEA030A129B8BEA030B139B39988AEA56
:101AEC00030A339B3A9C434034984FEA4A0580EAF8
:101AFC0004090E98149C43400F984FEA4B0689EA50
:101B0C000009109845EADB754340119846EADA76ED
:101B1C0089EA00092598434026985E4089EA000925
:101B2C002F9885EA090580EA04083098159C80EA0C
:101B3C00040E3D9888EA00083E988EEA000E1E9826
:101B4C0088EA00081F988EEA000E0A9888EA0008B6
:101B5C000B984FEA48048EEA000E44EADE744C40BF
:101B6C004FEA4E00049940EAD87048400599490064
:101B7C0041EAD27104910599520042EAD17282EA8B
:101B8C000B024FEA490B4BEAD37B5B0043EAD97358
:101B9C0083EA0808109B049983EA0C030493119BB5
:101BAC008BEA0E0E7B400593339B81EA0A0183EA94
:101BBC000C031093349B83EA0709399B83EA0C03CB
:101BCC0011933A9B83EA070B0E9B83EA0C030E934B
:101BDC000F9B7B400F93259B83EA0C0C269B5F404D
:101BEC002B9B83EA060A2C9B6B401893359B734006
:101BFC001993379B6B401C933B9B73401D933C9BF1
:101C0C006B4021931A9B73401A931B9B6B401B9345
:101C1C00279B5E40289B5D402D9B634022932E9B0F
:101C2C0043402593089B63402693099B434027938D
:101C3C00239B63402393249B43402493129B634038
:101C4C002893139B43402B93299B5C402A9B584021
:101C5C002F9B53402993309B4B402A93149B53400A
:101C6C002C93159B4B402D933D9B53402E933E9BA9
:101C7C004B402F931E9B534030931F9B4B403393F1
:101C8C000A9B534034930B9B5940319B83EA0803C6
:101C9C003193329B83EA0E033293209B83EA080331
:101CAC003593389B83EA0E0337930C9B83EA080326
:101CBC0038930D9B83EA0E033993069B83EA080342
:101CCC003A93079B83EA0E033B93169B83EA08081F
:101CDC00179B83EA0E033C93109B4FEA850E1A0F59
:101CEC0042EA09130693109B4FEA197949EA031348
:101CFC000793119B4FEACB0242EA53730993119B52
:101D0C000F9ADB0043EA5B7308930E9B4FEAD40BEC
:101D1C00DB0D43EA42230A93D30D0E9A4BEA407B28
:101D2C0043EA42230B93BB0443EA9C334FEA8C4CAB
:101D3C000D934CEA97330C93189B1C9A5B0043EA67
:101D4C00DA730F93189B4FEA4A0A4AEAD3730E933D
:101D5C00199BC0081B0D43EA02331093130D199AFB
:101D6C0040EA447443EA02331193219B1D9A9B026F
:101D7C0043EA925313939302219A43EA9253129398
:101D8C001A9B1B9ADB0C43EA42331493D30C1A9A1A
:101D9C0043EA423315934EEA9673B600179346EA1C
:101DAC0095731693229B259A9B0843EA827318938A
:101DBC009308229A43EA82731993279B269A9B01D4
:101DCC0043EA92631B939301279A43EA92631A9313
:101DDC00239B249A5B0D43EAC2231C93530D239A35
:101DEC0043EAC2231D932B9B289ADB0343EA5243FD
:101DFC001F93D3032B9A43EA52431E932A9B2D9A8B
:101E0C001E07299B500A46EA13161D072A9B45EA12
:101E1C0013152C9B5B0A43EAC25320932C9B2E9ADE
:101E2C0040EAC35321932F9B5B0643EAD2132393BF
:101E3C0053062F9A43EAD2132293339B4FEA43590A
:101E4C00309B49EAD3295805339B40EAD320349B75
:101E5C001A0A42EA01632493349B0A0A42EA036396
:101E6C002593329B4FEAC36A319B4AEA531327935B
:101E7C00319B359A4FEAC36E329B17054EEA5313CA
:101E8C002693379B39991B0543EA1233379ADDF8B1
:101E9C00ECC047EA1237389A4FEA883E520E42EAB3
:101EAC00C11229924A0E3899289342EAC1122A92F9
:101EBC003B9A109B11023A9A41EA1261120242EAD1
:101ECC001C62DDF8F0C04FEA8C3C4CEA984CDDF813
:101EDC00F0804EEA984EDDF8708060EA080ADDF872
:101EEC0074808AEA030A119B69EA080888EA0303EA
:101EFC002C931C9BCDF8ACA000EA0E0A8AEA0303D3
:101F0C002D931D9B09EA0C0888EA03032E93049B6E
:101F1C0043EA0E0A059B43EA0C088AEA00032F9356
:101F2C0088EA09033093049B109803EA0008059B88
:101F3C001198184088EA0E03319380EA0C0332930F
:101F4C00089B289843EA070A099B43EA00098AEA96
:101F5C000503339389EA060314983493089B03EA28
:101F6C00000C099B159818408CEA07033593289BA5
:101F7C0043403793149B63EA0B0C159B63EA0400F4
:101F8C00089B8CEA03030893099B4BEA050C43401E
:101F9C000993149B44EA06008CEA03031493159BE3
:101FAC003D4043401593289BC8431E4085EA0B03D4
:101FBC00289386EA0403229D38931A9BD4432B431F
:101FCC001B9D239E45EA060B0E9D6B4039930F9B80
:101FDC008BEA03033A93229B03EA020533461A9ECB
:101FEC000B4075403B951B9D6B403C930C9B23EA2F
:101FFC0002020D9B23EA0101229B53402293239B57
:10200C000E9A4B4023930C9B0F991A430D9B6240E5
:10201C000B4343403E930E9B3D9203EA060A0B464C
:10202C000C9A2B408AEA02020C920D9A1299534098
:10203C000D931E9BDA431F9BD843069B1940079BAD
:10204C00139C2340269C61400E9127991F9C4B406A
:10205C000F931E99129B1943139B2343069C6140BB
:10206C001A9107991F9C4B401B931E99249B63EA62
:10207C000103259961EA0401129C63401293139B9E
:10208C00279C4B4013932699249B1940259B4A402F
:10209C00234043401E921F93269A069B1A43079B8C
:1020AC0043EA0409249B53400693259B209A89EA12
:1020BC0003030793209B2A99DE43219BDD43299B35
:1020CC0023EA020C2A9B219A23EA0207189B299ADD
:1020DC008CEA03032493199B7B4025930A9B1A4398
:1020EC000B9B72400B436B4026922793169A0A9BCC
:1020FC0003EA02040B9B179A03EA0200299B189A25
:10210C006340299380EA01032A93169B1999134380
:10211C00179A0A430A994B400A930B9B53400B9313
:10212C00209A189B21991340199A1C9802EA0108CD
:10213C00169A049953401693179B019A88EA030345
:10214C001793019BD2699B691D9C4B4005994A4092
:10215C0010990843119943402143109381EA0203DB
:10216C001193359A2B9B83EA02042C9B379A83EAB2
:10217C0002003B9B5C403C9B58401A9B5C401B9B69
:10218C005840269B83EA0401279B4FEA410C4340AD
:10219C000493289B169A17985A40389B0F9C4340DF
:1021AC0031984240329843400C9842400D9843403D
:1021BC0006984240079843400593049B22985F0081
:1021CC004CEAD37C059B47EAD1775F40089B8CEAAD
:1021DC00020C83EA000B099B239883EA000A2D9BCF
:1021EC000E988BEA030B2E9B8AEA030A129B8BEA4E
:1021FC00030B139B8AEA030A299B8BEA030B2A9B8A
:10220C004FEA4B068AEA030A339B4FEA4A054340DE
:10221C00349845EADB7580EA0409399846EADA769F
:10222C0043403A9889EA000924984340259889EA62
:10223C0000091098434011985E4089EA00092F98D4
:10224C00149C85EA090580EA04083098159C80EAFC
:10225C00040E1E9888EA00081F988EEA000E3D981E
:10226C0088EA00083E988EEA000E0A9880EA080870
:10227C000B984FEA480480EA0E0E44EADE744C4098
:10228C004FEA4E00049940EAD8704840059949003D
:10229C0041EAD27104910599520042EAD17282EA64
:1022AC000B024FEA490B4BEAD37B5B0043EAD97331
:1022BC0083EA0808109B049983EA0C030493119B8E
:1022CC008BEA0E0E7B400593339B81EA0A0183EA6D
:1022DC000C031093349B83EA0709399B83EA0C03A4
:1022EC0011933A9B83EA070B0E9B83EA0C030E9324
:1022FC000F9B7B400F93249B83EA0C0C259B5F4028
:10230C002B9B83EA060A2C9B6B401893359B7340DE
:10231C001993379B6B401C933B9B73401D933C9BC9
:10232C006B4020931A9B73401A931B9B6B401B931F
:10233C00269B5E40279B5D402D9B634021932E9BEB
:10234C0043402493089B63402593099B4340269369
:10235C00229B63402293239B43402393129B634015
:10236C002793139B43402B93299B5C402A9B5840FB
:10237C002F9B53402993309B4B402A93149B5340E3
:10238C002C93159B4B402D933D9B53402E933E9B82
:10239C004B402F931E9B534030931F9B4B403393CA
:1023AC000A9B534034930B9B5940319B83EA08039F
:1023BC003193329B83EA0E033293289B83EA080302
:1023CC003593389B83EA0E0337930C9B83EA0803FF
:1023DC0038930D9B83EA0E033993069B83EA08031B
:1023EC003A93079B83EA0E033B93169B83EA0808F8
:1023FC00179B83EA0E033C93109B4FEA850E1A0F32
:10240C0042EA09130693109B4FEA197949EA031320
:10241C000793119B4FEACB0242EA53730993119B2A
:10242C000F9ADB0043EA5B7308930E9B4FEAD40BC5
:10243C00DB0D43EA42230A93D30D0E9A4BEA407B01
:10244C0043EA42230B93BB0443EA9C334FEA8C4C84
:10245C000D934CEA97330C93189B1C9A5B0043EA40
:10246C00DA730F93189B4FEA4A0A4AEAD3730E9316
:10247C00199BC0081B0D43EA02331093130D199AD4
:10248C0040EA447443EA02331193209B1D9A9B0249
:10249C0043EA925313939302209A43EA9253129372
:1024AC001A9B1B9ADB0C43EA42331493D30C1A9AF3
:1024BC0043EA423315934EEA9673B600179346EAF5
:1024CC0095731693219B249A9B0843EA8273189365
:1024DC009308219A43EA82731993269B259A9B01B0
:1024EC0043EA92631B939301269A43EA92631A93ED
:1024FC00229B239A5B0D43EAC2231C93530D229A11
:10250C0043EAC2231D932B9B279ADB0343EA5243D6
:10251C001F93D3032B9A43EA52431E932A9B4FEAF1
:10252C00037C299B2A9A4CEA131C1B0743EA1213BF
:10253C002C9A2D98520A42EAC05221922C9A400AA7
:10254C0040EAC25222922F9A2E98520642EAD01298
:10255C00249242062F98209342EAD0122392339A67
:10256C004FEA4259309A49EAD2295005339A40EA47
:10257C00D220349A120A42EA016225920A0A34994C
:10258C0042EA01622692329A39994FEAC26A319A2A
:10259C004AEA52122892319A4FEAC26E329A4EEAA5
:1025AC0052122792379A4FEA883E1505359A45EA1A
:1025BC0012351605379A46EA1236389A520E42EA06
:1025CC00C11229924A0E38993B9F42EAC1122A92B3
:1025DC003B9A109B11023A9A41EA1261120242EAAA
:1025EC0017623C9FBF0347EA9847DDF8F0804EEA3C
:1025FC00984EDDF8708060EA080ADDF874808AEA8B
:10260C00030A119B69EA080888EA03032C931C9BB4
:10261C00CDF8ACA000EA0E0A8AEA03032D931D9BA9
:10262C0009EA070888EA03032E93049B43EA0E0A7F
:10263C00059B43EA07088AEA00032F9388EA0903FB
:10264C0010983093049B03EA0008059B11981840DE
:10265C0088EA0E03319380EA07033293089B43EA1E
:10266C00060A099B43EA0509209B8AEA0303339374
:10267C0089EA0C033493089B149803EA0007099B1E
:10268C001598184087EA0603359380EA05033793BB
:10269C00149B63EA0B07159B63EA0400089B7B40C1
:1026AC000893099B43400993209B44EA0C004BEA96
:1026BC000307149B0CEA050C7B401493159B239D7C
:1026CC0043401593209BC843334083EA0B0320936C
:1026DC008CEA040338931A9B249E2B431B9DD443F2
:1026EC0045EA060B0E9D6B4039930F9B8BEA030357
:1026FC003A93239B03EA020533461A9E0B4075401E
:10270C003B951B9D6B403C930C9B23EA02020D9B5B
:10271C0023EA0101239B53402393249B0E9A4B40A5
:10272C0024930C9B0F991A430D9B62400B4343401F
:10273C003E930E9B3D9203EA060A0B460C9A2B40E5
:10274C008AEA02020C920D9A129953400D931E9B29
:10275C00139CDA431F9BD843069B1940079B2340CD
:10276C00279C61400E9128991F9C4B400F931E99FA
:10277C00129B1943139B2343069C61401A910799A2
:10278C001F9C4B401B931E99259B63EA01032699C2
:10279C0061EA0401129C63401293139B289C4B40EA
:1027AC0013932799259B1940269B4A40234043406D
:1027BC001E921F93279A069B1A43079B43EA040910
:1027CC00259B53400693269B219A89EA0303079382
:1027DC00219BDE43229BDD43299B23EA020C2A9B8F
:1027EC00229A23EA0207189B8CEA03032593199B70
:1027FC007B4026930A9B299A2A991A430B9B724079
:10280C000B436B4027922893169A0A9B03EA020407
:10281C000B9B179A03EA0200299B189A6340299391
:10282C0080EA01032A93169B19991343179A0A43BA
:10283C000A994B400A930B9B229953400B93219A74
:10284C00189B1340199A02EA0108169A53401693E2
:10285C00179B019A88EA03031793019B1B6A526A20
:10286C0004991C984B4005991D9C4A4010990843AB
:10287C00119943402143109381EA020311933B9A2F
:10288C00359B83EA0204379B3C9A83EA02001A9B2D
:10289C00209A5C401B9B5840279B5C40289B5840CF
:1028AC002B9B84EA03012C9B4FEA410C434005937C
:1028BC00319B38985A40329B43400C9842400D98BB
:1028CC004340069842400798434016984240179858
:1028DC0043400493059B5F004CEAD37C049B47EA7E
:1028EC00D1775F4029982D9B3A9C83EA000B2E9B55
:1028FC002A988CEA020C83EA000A089B39988BEA26
:10290C00030B099B8AEA030A239B8BEA030B249B88
:10291C008AEA030A129B8BEA030B139B4FEA4B06C2
:10292C008AEA030A339B4FEA4A054340349845EA46
:10293C00DB7580EA04090E98149C43400F9846EA14
:10294C00DA7689EA000910984340119889EA00095F
:10295C002598434026985E4089EA00092F9885EA1D
:10296C00090580EA04083098159C80EA040E3D980D
:10297C0088EA00083E988EEA000E1E9888EA000845
:10298C001F988EEA000E0A9888EA00080B984FEA06
:10299C0048048EEA000E44EADE744C404FEA4E00C6
:1029AC00059940EAD87048400499490041EAD2712F
:1029BC0005910499520042EAD17282EA0B024FEA65
:1029CC00490B4BEAD37B5B0043EAD97383EA0808D3
:1029DC00109B059983EA0C030493119B8BEA0E0E52
:1029EC007B400593339B81EA0A0183EA0C03109325
:1029FC00349B83EA0709399B83EA0C0311933A9BB6
:102A0C0083EA070B0E9B83EA0C030E930F9B7B4010
:102A1C000F93259B83EA0C0C269B5F402B9B83EA30
:102A2C00060A2C9B6B401893359B73401993379B6C
:102A3C006B401C933B9B73401D933C9B6B402193C1
:102A4C001A9B73401A931B9B6B401B93279B5E40F6
:102A5C00289B5D402D9B634022932E9B43402593E6
:102A6C00089B63402693099B43402793239B634019
:102A7C002393249B43402493129B63402893139BE2
:102A8C0043402B93299B5C402A9B58402F9B5340DF
:102A9C002993309B4B402A93149B53402C93159BAA
:102AAC004B402D933D9B53402E933E9B4B402F937D
:102ABC001E9B534030931F9B4B4033930A9B5340B8
:102ACC0034930B9B5940319B83EA08033193329B1F
:102ADC0083EA0E033293209B83EA08033593389BD9
:102AEC0083EA0E0337930C9B83EA080338930D9B00
:102AFC0083EA0E033993069B83EA08033A93079BF8
:102B0C0083EA0E033B93169B83EA0808179B83EA20
:102B1C000E033C93109B4FEA850E1A0F42EA0913E1
:102B2C000693109B4FEA197949EA03130793119BFB
:102B3C004FEACB0242EA53730993119B0F9ADB00C5
:102B4C0043EA5B7308930E9B4FEAD40BDB0D43EA0D
:102B5C0042230A93D30D0E9A4BEA407B43EA42235D
:102B6C000B93BB0443EA9C334FEA8C4C0D934CEA19
:102B7C0097330C93189B1C9A5B0043EADA730F9300
:102B8C00189B4FEA4A0A4AEAD3730E93199BC00862
:102B9C001B0D43EA02331093130D199A40EA447447
:102BAC0043EA02331193219B1D9A9B0243EA9253F1
:102BBC0013939302219A43EA925312931A9B1B9AF2
:102BCC00DB0C43EA42331493D30C1A9A43EA423394
:102BDC0015934EEA9673B600179346EA95731693BF
:102BEC00229B259A9B0843EA827318939308229A96
:102BFC0043EA82731993279B269A9B0143EA9263BB
:102C0C001B939301279A43EA92631A93239B249A6A
:102C1C005B0D43EAC2231C93530D239A43EAC22350
:102C2C001D932B9B289ADB0343EA52431F93D30338
:102C3C002B9A43EA52431E932A9B2D9A1F07299BDA
:102C4C00500A47EA13171D072A9B45EA13152C9BBC
:102C5C005B0A43EAC25320932C9B2E9A40EAC3533F
:102C6C0021932F9B5B0643EAD213239353062F9A8F
:102C7C0043EAD2132293339B3B9E4FEA4359309B3A
:102C8C0049EAD3295805339B40EAD320349B1A0ACE
:102C9C0042EA01632493349B0A0A42EA03632593B4
:102CAC00329B359A4FEAC36A319B4FEA025C4AEA7F
:102CBC0053132793319B39994FEAC36E329B4EEADB
:102CCC0053132693379B4FEA883E1B0543EA123376
:102CDC00379A28934CEA123C389A109B520E42EACF
:102CEC00C11229924A0E389942EAC1122A923B9A91
:102CFC0011023A9A41EA1261120242EA16623C9EB1
:102D0C00B60346EA9846DDF8F0804EEA984EDDF8B8
:102D1C00708060EA080ADDF874808AEA030A119B65
:102D2C0069EA080888EA0303CDF8ACA02C931C9B35
:102D3C0000EA0E0A8AEA03032D931D9B09EA060892
:102D4C0088EA03032E93049B43EA0E0A059B43EA8D
:102D5C0006088AEA00032F9388EA09031098309337
:102D6C00049B03EA0008059B1198184088EA0E039F
:102D7C00319380EA06033293089B289843EA0C0AA5
:102D8C00099B43EA00098AEA0503339389EA07039E
:102D9C0014983493089B03EA0006099B1598184075
:102DAC0086EA0C033593289B43403793149B63EAC4
:102DBC000B06159B63EA0400089B73400893099B60
:102DCC004BEA050643400993149B44EA0700734001
:102DDC001493159B05EA0C0543401593289B239EE1
:102DEC001F4085EA0B03289387EA0403229D38933E
:102DFC001A9BD4432B431B9DC84345EA060B0E9DDF
:102E0C006B4039930F9B8BEA03033A93229B03EAA3
:102E1C00020533461A9E0B4075403B951B9D6B403B
:102E2C003C930C9B23EA02020D9B23EA0101229B9B
:102E3C0053402293239B0E9A4B4023930C9B0F9948
:102E4C001A430D9B62400B4343403D923E930E9BB5
:102E5C000C9A03EA060A0B468AEA02020C920D9AB5
:102E6C002B4053400D931E9B1299DA431F9B139CCE
:102E7C00D843069B1940079B2340269C61400E912A
:102E8C0027991F9C4B400F931E99129B1943139B20
:102E9C002343069C61401A9107991F9C4B401B933E
:102EAC001E99249B63EA0103259961EA0401129C93
:102EBC0063401293139B4B401393249B2699279C9E
:102ECC001940259B4A40234043401E921F93269A4B
:102EDC00069B2A991A43079B43EA0409249B5340F7
:102EEC000693259B209A89EA03030793209BDE43D4
:102EFC00219BDD43299B23EA020C2A9B219A23EA7E
:102F0C000207189B299A8CEA03032493199B7B4094
:102F1C0025930A9B1A430B9B72400B436B402692E2
:102F2C002793169A0A9B03EA0204179A0B9B03EA4F
:102F3C000200299B189A6340299380EA01032A9383
:102F4C00169B19991343179A1C980A430A991D9CAE
:102F5C004B400A930B9B219953400B93209A189B3F
:102F6C001340199A02EA0108169A049953401693D1
:102F7C00179B019A88EA03031793019BD26A9B6AF9
:102F8C004B4005994A4010990843119943402143FD
:102F9C00109381EA020311932B9B359A83EA020466
:102FAC002C9B379A83EA02003B9B169A5C403C9B15
:102FBC0058401A9B5C401B9B5840269B83EA04019B
:102FCC00279B4FEA410C43400493289B17985A4087
:102FDC00389B434031984240329843400C984240D1
:102FEC000D98434006984240079843400593049B34
:102FFC0022985F004CEAD37C059B47EAD1775F406F
:10300C00089B8CEA020C83EA000B099B239883EA49
:10301C00000A2D9B8BEA030B2E9B8AEA030A129B58
:10302C008BEA030B139B8AEA030A299B8BEA030B9B
:10303C002A9B0E988AEA030A339B0F9C43403498D0
:10304C004FEA4A0580EA04093998149C43403A989F
:10305C004FEA4B0689EA0009249845EADB754340A0
:10306C00259846EADA7689EA0009109843401198C7
:10307C005E4089EA00092F9885EA090580EA040870
:10308C003098159C80EA040E1E9888EA00081F9858
:10309C008EEA000E3D9888EA00083E988EEA000EF3
:1030AC000A9880EA08080B984FEA480480EA0E0E4A
:1030BC0044EADE744C404FEA4E00049940EAD87062
:1030CC0048400599490041EAD27104910599520092
:1030DC0042EAD17282EA0B024FEA490B4BEAD37BEC
:1030EC005B0043EAD97383EA0808109B049983EACE
:1030FC000C030493119B8BEA0E0E7B400593339BC0
:10310C0081EA0A0183EA0C031093349B83EA0709D2
:10311C00399B83EA0C0311933A9B83EA070B0E9BB2
:10312C0083EA0C030E930F9B7B400F93249B83EA43
:10313C000C0C259B5F402B9B83EA060A2C9B6B4057
:10314C001893359B73401993379B6B401C933B9B97
:10315C0073401D933C9B6B4020931A9B73401A93B6
:10316C001B9B6B401B93269B5E40279B5D402D9BBE
:10317C00634021932E9B43402493089B63402593EB
:10318C00099B43402693229B63402293239B4340FD
:10319C002393129B63402793139B43402B93299BB0
:1031AC005C402A9B58402F9B53402993309B4B40AB
:1031BC002A93149B53402C93159B4B402D933D9B72
:1031CC0053402E933E9B4B402F931E9B534030936A
:1031DC001F9B4B4033930A9B534034930B9B59409A
:1031EC00319B83EA08033193329B83EA0E033293BB
:1031FC00289B83EA08033593389B83EA0E033793A5
:10320C000C9B83EA080338930D9B83EA0E033993D6
:10321C00069B83EA08033A93079B83EA0E033B93CE
:10322C00169B83EA0808179B83EA0E033C93109BBA
:10323C004FEA850E1A0F42EA09130693109B4FEAC8
:10324C00197949EA03130793119B4FEACB0242EA1F
:10325C0053730993119B0F9ADB0043EA5B7308933A
:10326C000E9B4FEAD40BDB0D43EA42230A93D30D9A
:10327C000E9A4BEA407B43EA42230B93BB0443EA8E
:10328C009C334FEA8C4C0D934CEA97330C93189B60
:10329C001C9A5B0043EADA730F93189B4FEA4A0AB5
:1032AC004AEAD3730E93199BC0081B0D43EA0233F1
:1032BC001093130D199A40EA447443EA02331193A4
:1032CC00209B1D9A9B0243EA925313939302209ADC
:1032DC0043EA925312931A9B1B9ADB0C43EA423338
:1032EC001493D30C1A9A43EA423315934EEA96730D
:1032FC00B600179346EA95731693219B249A9B0864
:10330C0043EA827318939308219A43EA82731993C0
:10331C00269B259A9B0143EA92631B939301269A61
:10332C0043EA92631A93229B239A5B0D43EAC223CE
:10333C001C93530D229A2D9843EAC2231D932B9B69
:10334C00279ADB0343EA52431F93D3032B9A43EA96
:10335C0052431E932A9B2A9A1E07299B46EA131650
:10336C001B0743EA12132C9A2093520A42EAC052CA
:10337C0021922C9A400A40EAC25222922F9A2E98FD
:10338C00520642EAD012249242062F9842EAD012F8
:10339C002392339A4FEA4259309A49EAD22950057E
:1033AC00339A40EAD220349A120A42EA01622592F8
:1033BC000A0A349942EA01622692329A4FEAC26AA8
:1033CC00319A4AEA52122892319A39994FEAC26ECE
:1033DC00329ADDF8ECC04EEA52122792379A4FEA35
:1033EC00883E1505359A109B45EA12351705379A14
:1033FC0047EA1237389A520E42EAC11229924A0E03
:10340C00389942EAC1122A923B9A11023A9A41EA3D
:10341C001261120242EA1C62DDF8F0C04FEA8C3CE9
:10342C004CEA984CDDF8F0804EEA984EDDF870804E
:10343C0060EA080ADDF874808AEA030A119B69EADB
:10344C00080888EA03032C931C9BCDF8ACA000EA77
:10345C000E0A8AEA03032D931D9B09EA0C0888EADD
:10346C0003032E93049B43EA0E0A059B43EA0C08C4
:10347C008AEA00032F9388EA090310983093049B7F
:10348C0003EA0008059B1198184088EA0E03319353
:10349C0080EA0C033293089B149843EA070A099BB1
:1034AC0043EA0509209B8AEA0303339389EA06035E
:1034BC003493089B03EA000C099B159818408CEA7E
:1034CC000703359380EA05033793149B63EA0B0CCF
:1034DC00159B63EA0400089B8CEA03030893099B81
:1034EC0043400993209B44EA06004BEA030C149BCF
:1034FC002E408CEA03031493159B239D4340159394
:10350C00209BC8433B4083EA0B03209386EA0403C9
:10351C0038931A9BD4432B431B9D249E45EA060BE0
:10352C000E9D6B4039930F9B8BEA03033A93239BBD
:10353C0003EA020533461A9E0B4075403B951B9DD2
:10354C006B403C930C9B23EA02020D9B23EA010186
:10355C00239B53402393249B0E9A4B4024930C9B08
:10356C000F991A430D9B62400B4343403E930E9BB5
:10357C003D9203EA060A0B460C9A2B408AEA020299
:10358C000C920D9A129953400D931E9BDA431F9B7C
:10359C00D843069B1940079B139C2340279C6140F2
:1035AC000E9128991F9C4B400F931E99129B194307
:1035BC00139B2343069C61401A9107991F9C4B4017
:1035CC001B931E99259B63EA0103269961EA04016A
:1035DC00129C63401293139B289C4B401393279986
:1035EC00259B1940269B4A40234043401E921F9323
:1035FC00279A069B1A43079B43EA0409259B5340D1
:10360C000693269B219A89EA03030793219B2A9907
:10361C00DE43229BDD43299B23EA020C2A9B229A40
:10362C0023EA0207189B299A8CEA03032593199B1A
:10363C007B4026930A9B1A430B9B72400B436B40B7
:10364C0027922893169A0A9B03EA02040B9B179A5B
:10365C0003EA0200299B189A6340299380EA01032C
:10366C002A93169B19991343179A0A430A994B40AC
:10367C000A930B9B53400B93219A189B229913404E
:10368C00199A1C9802EA0108169A04995340169349
:10369C00179B019A88EA03031793019B526B1B6BD0
:1036AC001D9C4B4005994A40109908431199434081
:1036BC002143109381EA020311933B9A359B83EAD1
:1036CC000204379B3C9A83EA02001A9B5C401B9BCA
:1036DC005840279B5C40289B58402B9B84EA030155
:1036EC002C9B4FEA410C43400593319B209A389810
:1036FC005A40329B3A9C43400C9842400D984340B0
:10370C000698424007984340169842401798434009
:10371C000493059B29985F004CEAD37C049B47EAF1
:10372C00D1775F402D9B8CEA020C83EA000B2E9B19
:10373C002A9883EA000A089B39988BEA030B099BA9
:10374C008AEA030A239B8BEA030B249B8AEA030A6B
:10375C00129B8BEA030B139B4FEA4B068AEA030A74
:10376C00339B4FEA4A054340349845EADB7580EABF
:10377C0004090E9846EADA7643400F9889EA000964
:10378C0010984340119889EA0009259843402698DF
:10379C005E4089EA00092F98149C85EA090580EAA5
:1037AC0004083098159C80EA040E3D9888EA0008BD
:1037BC003E988EEA000E1E9888EA00081F988EEA42
:1037CC00000E0A9888EA00080B984FEA48048EEA23
:1037DC00000E44EADE744C404FEA4E00059940EA74
:1037EC00D87048400499490041EAD2710591049976
:1037FC00520042EAD17282EA0B024FEA490B4BEAC1
:10380C00D37B5B0043EAD97383EA0808109B0599C4
:10381C0083EA0C030493119B8BEA0E0E7B400593F9
:10382C00339B81EA0A0183EA0C031093349B83EAED
:10383C000709399B83EA0C0311933A9B83EA070B24
:10384C000E9B83EA0C030E930F9B7B400F93259BDF
:10385C0083EA0C0C269B5F402B9B83EA060A2C9B6D
:10386C006B401893359B73401993379B6B401C939B
:10387C003B9B73401D933C9B6B4021931A9B734065
:10388C0022931B9B6B402593279B5E40289B5D409E
:10389C002D9B634026932E9B43402793089B6340AC
:1038AC002B93099B43402C93239B63402393249B92
:1038BC0043402493129B63402D93139B43402E93C0
:1038CC00299B5C402A9B58402F9B53402F93309B45
:1038DC004B403393149B53401493159B4B401593BF
:1038EC003D9B53403F933E9B4B4040931E9B53400C
:1038FC001E931F9B4B401F930A9B534041930B9B62
:10390C005940319B83EA08034293329B83EA0E03AE
:10391C003293209B83EA08032093389B83EA0E039F
:10392C0043930C9B83EA080344930D9B83EA0E0399
:10393C004593069B83EA08034693079B83EA0E0391
:10394C000793169B83EA0808179B83EA0E031693CA
:10395C00109B4FEA850E1A0F42EA09132893109B0D
:10396C004FEA197949EA03132993119B4FEACB02C9
:10397C0042EA53730993119B0F9ADB0043EA5B7382
:10398C0008930E9B4FEAD40BDB0D43EA4223309392
:10399C00D30D0E9A4BEA407B43EA42233193BB048E
:1039AC0043EA9C334FEA8C4C0B934CEA97330A93C3
:1039BC00189B1C9A5B0043EADA730D93189B4FEA31
:1039CC004A0A4AEAD3730C93199BC0081B0D43EAAD
:1039DC0002333793130D199A40EA447443EA0233C5
:1039EC003893219B1D9A9B0243EA92531B9393029B
:1039FC00219A43EA92531A93229B259ADB0C43EAB1
:103A0C0042331293D30C229A43EA423313934EEA75
:103A1C009673B600359346EA95733493269B279A92
:103A2C009B0843EA827339939308269A43EA82737C
:103A3C003A932C9B2B9A9B0143EA92632793930115
:103A4C002C9A43EA92632693239B249A5B0D43EAB8
:103A5C00C2233B93530D239A43EAC2233C932E9BE0
:103A6C002D9ADB0343EA52432B93D3032E9A43EA5A
:103A7C0052432A93339B4FEA037C2F9B159A4CEAB3
:103A8C00131C1D07339B500A45EA1315149B459FC5
:103A9C005B0A43EAC2533D93149B3F9A40EAC353DB
:103AAC003E93409B5B0643EAD21319935306409A0C
:103ABC0043EAD21318931F9B1E9A5B0543EAD22349
:103ACC0050051F9A069340EAD220419A120A42EA04
:103ADC0001622C920A0A419942EA01622D92329AB1
:103AEC004FEAC269429A49EA52123392429A4FEA19
:103AFC00C26E329A4EEA52123292439A1105209AB1
:103B0C0041EA12311605439A46EA1236449A520E8D
:103B1C0042EAC7123F927A0E449FDDF81CE042EA5B
:103B2C00C7124092079A1702469A47EA1267120286
:103B3C0042EA1E62DDF858E04FEA8E3A4AEA984AA9
:103B4C004FEA883EDDF858804EEA984EDDF8EC805E
:103B5C0060EA0809DDF8F08063EA0808379B89EA17
:103B6C000309389BCDF8389088EA03030F93069B22
:103B7C0000EA0E0903EA0A083B9B89EA0303149343
:103B8C003C9B88EA03031593049B43EA0E09059BAF
:103B9C0043EA0A0889EA00031C93069B379888EAD3
:103BAC0003031D93049BDDF8E0801840059B80EA1D
:103BBC000E0003EA080383EA0A032393089B22906E
:103BCC0043EA060A099B43EA01098AEA05030693BC
:103BDC0089EA0C030793089B1298DDF84CE0184017
:103BEC00099B704003EA0E034B401193129B1090FB
:103BFC006EEA0400DDF820E063EA0B0383EA0E03AF
:103C0C001693099BDDF848E043404BEA050080EA37
:103C1C000E001E901398179344EA0C034340354052
:103C2C000CEA01011F9385EA0B03249381EA040338
:103C3C002593189C269B199D2343279CF94344EA02
:103C4C00050B0C9CD043634008930D9B8BEA03033C
:103C5C000993189B03EA02042B46269D3B406C40BB
:103C6C001294279C634013930A9B23EA02020B9B3A
:103C7C0023EA0707189B0D9C53401893199B0C9A29
:103C8C007B4019930A9B1A430B9B424023434B40A6
:103C9C0021930C9B209203EA050A2346279A1A9932
:103CAC0013400A9A1B9C8AEA020226920B9A5340F2
:103CBC0027932A9BDA432B9BD843289B1940299B9B
:103CCC002340329C61400A9133992B9C4B400B93BF
:103CDC002A991A9B19431B9B2343289C61400C91E6
:103CEC0029992B9C4B400D932A992C9B63EA010339
:103CFC002D9961EA04011A9C63401A931B9B339C17
:103D0C004B401B9332992C9B19402D9B4A402340CE
:103D1C0043402E922F93329A289B1A43299B43EAB5
:103D2C0004092C9B534032932D9B3D9A89EA030343
:103D3C0033933D9BDE433E9BDD433F9B23EA020CCA
:103D4C00409B3E9A23EA0207399B8CEA0303289393
:103D5C003A9B7B402993309B3F9A40991A43319B65
:103D6C0072400B436B402A922B93349A309B03EA9C
:103D7C000204319B359A03EA02003F9B399A634057
:103D8C002C9380EA01032D93349B3A991343359A73
:103D9C000A4330994B403093319B3E9953403193B9
:103DAC003D9A399B13403A9A02EA0108349A5340DF
:103DBC003493359B019A88EA03033593019B9B6BE3
:103DCC00D16B049A3B985A40059B3C9C5940379BBD
:103DDC000343389853402043049380EA010305932E
:103DEC00019B40330193019A4F4B93427CF47CAB83
:103DFC000024FCF7AFBA009B049AC3F89820059AEC
:103E0C00C3F89C200E9AC3F8A0200F9AC3F8A420E4
:103E1C00149AC3F8A820159AC3F8AC201C9AC3F8BE
:103E2C00B0201D9AC3F8B420229AC3F8B820239A64
:103E3C00C3F8BC20069AC3F8C020079AC3F8C42064
:103E4C00109AC3F8C820119AC3F8CC20169AC3F85C
:103E5C00D020179AC3F8D4201E9AC3F8D8201F9AE2
:103E6C00C3F8DC20249AC3F8E020259AC3F8E42098
:103E7C00089AC3F8E820099AC3F8EC20129AC3F800
:103E8C00F020139AC3F8F420189AC3F8F820199A62
:103E9C00C3F8FC20209AC3F80021219AC3F804210E
:103EAC00269AC3F80821279AC3F80C210A9AC3F85A
:103EBC0010210B9AC3F814210C9AC3F818210D9AEF
:103ECC00C3F81C211A9AC3F820211B9AC3F8242189
:103EDC002E9AC3F828212F9AC3F82C21329AC3F8B2
:103EEC003021339AC3F83421289AC3F83821299AFF
:103EFC00C3F83C212A9AC3F840212B9AC3F84421D9
:103F0C002C9AC3F848212D9AC3F84C21309AC3F847
:103F1C005021319AC3F85421349AC3F85821359A58
:103F2C00C3F85C21FCF74AB9289D0008F0B5C9B26A
:103F3C00D0F890601D4641F48071C2F10803D9405D
:103F4C00872E0446A5B0C9B25BD1072A53D18DF890
:103F5C000010324600210DF1010005F0CDFC80234C
:103F6C0089278DF8883088233A4669462046FCF725
:103F7C0011F9D4E92823D243DB43C4E92823D4E93B
:103F8C002A23D243DB43C4E92A23D4E93623D24380
:103F9C00DB43C4E93623D4E93E23D243DB43C4E9F3
:103FAC003E23D4E94823D243DB43C4E94823D4E974
:103FBC004E23DB43D2436946C4E94E23002323F04E
:103FCC00070208332244202BD2E92667E1E8026776
:103FDC00F5D16A4608AE134603CBB342286069603C
:103FEC001A4605F10805F6D14FF480712046FCF70E
:103FFC00AFF825B0F0BD61F07F0101278DF80010FE
:10400C00B1E78DF80010C6F1860200210DF1010018
:10401C0005F072FC24ABC6F188079E1B802306F8C2
:10402C00093CA0E74FF48071FCF792B88823FCF7A9
:10403C00B1B800220B461146FFF778BF2DE9F047C7
:10404C00DFF840828AB0D8F808301F2B07D84046DA
:10405C008D4903F031FF00200AB0BDE8F087012143
:10406C00112003F023FC642003F060FC00211120DC
:10407C0003F01CFC844901A803F0D7FE2C21404618
:10408C0003F088FF00220346414607A803F086FF91
:10409C0007A901A803F008FF07A803F081FE02227C
:1040AC00039B01A907A803F079FF07A901A803F056
:1040BC00FBFE07A803F074FE039C744F64084022B7
:1040CC00002173483C6005F017FC94B34FF00009D5
:1040DC004D46DFF8BCA16F4E494601A803F03EFFE8
:1040EC0003461B7809F1010103F01F030933A6FBFA
:1040FC000324E40804EB840401A804EB84041C1BD3
:10410C0003F02CFF01783A6801F01F010931A6FB7E
:10411C000103DB0803EB8303240103EB8303013569
:10412C00E4B2CB1A2344AA4209F102090AF8013B72
:10413C00D2D8554904A803F078FE2C21514803F03D
:10414C0029FF0246D8F8083001324E4907A803F07F
:10415C0025FF07A904A803F0A7FE07A803F020FE7B
:10416C00069B022204A907A803F018FF07A904A8BC
:10417C0003F09AFE07A803F013FE069C039B9C42D7
:10418C0013D2454D294607A803F04FFE04A907A8F2
:10419C0003F0D8FE014604A803F077FE07A803F04D
:1041AC00FFFD069C039B9C42ECD33C4E202200213D
:1041BC003046640805F0A0FBC4F120031F2B5ED829
:1041CC004FF00009C4F11F04324D06EB040806F150
:1041DC001F07494604A803F0C1FE03461B7809F1EA
:1041EC00010103F01F030933A5FB0324E40804EBCE
:1041FC00840404A804EB84041C1B03F0AFFE0278B7
:10420C00240102F01F020932A5FB0213DB0803EBA9
:10421C00830303EB8303E4B2D31A234408F8013F6E
:10422C00474509F10209D4D17278317833791204F7
:10423C0002EB0162B1781806F37902EB0121F278F6
:10424C001B18707942EB0102B17900041B184FEA7C
:10425C00012142F100025B1842F1000210480A49A8
:10426C0003604260074803F027FE04A803F098FDA2
:10427C0001A803F095FD01200AB0BDE8F0870023EA
:10428C001A46EBE730020020389D0008600200203F
:10429C00680200201F85EB51289D0008A802002011
:1042AC00C802002008B54FF4E131064803F068FD60
:1042BC000121112003F096FABDE8084000211120DD
:1042CC0003F0F4BA300400200149024803F0ADBDFC
:1042DC00389D000830020020014803F061BD00BF8A
:1042EC00300200202DE9F04FDDB003F055FA78488C
:1042FC0003F0CAFC80B1764C764D08E0204603F002
:10430C00C9FCC1B20A290AD0284603F00EFE204689
:10431C0003F0BAFC0028F1D15DB0BDE8F08FFFF7D7
:10432C008DFE0028F8D000226B4D6C4C2B6822605F
:10433C001C332B6003F0F6FA00F5EA4803F0F4FAAC
:10434C008246DFF89C91674ED9F80030DFF898B1BF
:10435C009842664F08F1300818BFC9F8000003F006
:10436C00E1FA404550D223682A680133190EB15442
:10437C003244190CD37023601B0A9370517004A83B
:10438C00FFF750FE2A685749043204A8FFF74EFE87
:10439C00554904A8FFF74DFE9BF801209BF800003F
:1043AC009BF80430120402EB00629BF807009BF8A8
:1043BC0002101B06C3189BF8030002EB01229BF8AA
:1043CC00051040EB02009BF8062009045B184FEA2D
:1043DC00022240F10000D21840F10000D7E900138E
:1043EC008A4270EB03032ED303F09EFAD9F8003007
:1043FC003F4AC31A9342B2D9C9F8000003F0CCF972
:10440C0003F090FA4045AED303F08EFA0346394DD3
:10441C00A3EB0A030A2221682D482B6003F0F3FB5F
:10442C0035492B4803F0C5FB0A222968284803F0BC
:10443C00EAFB3249264803F0BCFB25485DB0BDE8D9
:10444C00F04F03F0BBBB03F06FFA03462048DFF8D4
:10445C00A4800546A3EB0A030A222168C8F80030A1
:10446C0003F0D1FB2846244903F0A3FB0A22D8F819
:10447C000010284603F0C7FB214C28461E4903F0C8
:10448C0098FB28461F49204F04F1200603F091FBAE
:10449C000CE0102201A803F020FD01A9284603F02E
:1044AC0083FB01A803F07CFCB4420BD014F8011F71
:1044BC000F29EED83946284603F07BFB10222178D1
:1044CC0001A8E8E7024803F079FB5DB0BDE8F08F86
:1044DC003004002030020020600200203C0200204A
:1044EC002C0200206802002040020020C80200209C
:1044FC0040420F0064020020309D0008349D0008EB
:10450C003F0200202C9D0008289D000803460A4904
:10451C0010B508680344EFF30882934205D90C22C6
:10452C004FF0FF30054B1A6010BD054A054C121BAD
:10453C009342F4D20B60F7E700000020800E0020BD
:10454C000050002000040000FEE700001622024B81
:10455C004FF0FF301A607047800E0020012070472A
:10456C007047000038B50E4B054618784FF47A7337
:10457C00B3FBF0F30B4A1068B0FBF3F000F0A0F8BB
:10458C00044658B90F2D09D8024629464FF0FF3082
:10459C0000F042F82046044B1D6038BD0120FCE7BA
:1045AC00040000202000002008000020074A08B565
:1045BC001368032043F01003136000F01BF8002075
:1045CC00FFF7D0FFFFF7CCFF002008BD0020024012
:1045DC00034A044B11681B780B441360704700BFEF
:1045EC00D002002004000020014B1868704700BF67
:1045FC00D002002007490302CA6803F4E06322F4E6
:10460C00E0621204120C134343F0BF6343F4003313
:10461C00CB60704700ED00E0164B30B5DC68C4F39E
:10462C000224C4F10703251D042B28BF0423062DE7
:10463C004FF0FF3598BF002405FA03F388BF033C05
:10464C0021EA0303A34005FA04F422EA0402002839
:10465C0043EA0203ACBF00F16040074A4FEA031380
:10466C00DBB2ABBF00F5614000F00F0080F8003307
:10467C00135430BD00ED00E014ED00E0002808DB21
:10468C000123420900F01F0003FA00F0014B43F82C
:10469C002200704700E100E000280DDB01224309F5
:1046AC0000F01F0002FA00F0044A203342F8230005
:1046BC00BFF34F8FBFF36F8F704700BF00E100E077
:1046CC000138B0F1807F0BD24FF0E023F021054A86
:1046DC00586182F823100020072298611A617047F4
:1046EC000120704700ED00E0002809DB012243099E
:1046FC0000F01F0002FA00F0024A603342F8230077
:10470C00704700BF00E100E0704708B5FFF7FCFF01
:10471C0008BD90F82130022B06D0042383630023BC
:10472C0080F820300120704703681A6822F00E02CE
:10473C001A601A6822F001021A600123D0E90F21D5
:10474C008B4053604FF4807303840020704700004B
:10475C0008B590F82130022B03D004238363012089
:10476C0008BD03681A6822F00E021A601A6822F05B
:10477C0001021A60174A93421CD0143293421BD088
:10478C00143293421AD0143293421AD014329342F8
:10479C001AD0143293420CBF4FF480134FF0807335
:1047AC000D4A53604FF480730384436B7BB198477D
:1047BC000020D5E70123F3E71023F1E74FF48073D2
:1047CC00EEE74FF48053EBE74FF48033E8E71846FD
:1047DC00C6E700BF0800024000000240044A08B5CA
:1047EC005169014202D0506102F0CAFE08BD00BFFF
:1047FC0000040140F0B5044687B010B390F8A9321C
:10480C0003F0FF021BB980F8A82204F0E9FA032395
:10481C0025466E4684F8A93255F8100B01F055FC6C
:10482C000FCD0FC62B68271D3360264697E80E0068
:10483C0056F8100B01F039FC054620B1022384F820
:10484C00A93201254CE00146206801F048FC2946BC
:10485C004FF0010E28250846D4F804C0CAB294457E
:10486C0001F101011BD8002328251946D8B2844533
:10487C0003F1010320D8EC4635460FCDACE80F0010
:10488C002B68CCF8003097E80E00206801F029FC6A
:10489C0001230546E8B1022284F8A922D1E705FBE1
:1048AC000243C3E90E0083F829E083F82820DA8656
:1048BC0083F82B001864D1E705FB0042C2E95E11B6
:1048CC0082F8691182F8680182F86B11C2F88011C4
:1048DC00CCE784F82400206884F8A93201F094FE17
:1048EC00284607B0F0BD38B590F8A8320446012B25
:1048FC0010D0012580F8A852006801F0DDFB294694
:10490C00204600F0E1FD206801F07CFE002084F8D8
:10491C00A80238BD0220FCE710B590F8A822044686
:10492C00012A0BD0012280F8241080F8A8220068FC
:10493C0001F062FE002084F8A80210BD0220FCE702
:10494C002DE9F04F044685B0006801F05FFE0104CC
:10495C0009D5DFF80C93DFF80C832068B0F84430ED
:10496C001D0400F1C180206801F050FE42050FD5F6
:10497C0022682046B2F8443023F480631B041B0CDD
:10498C00A2F8443004F099FA00212046FFF7C4FF46
:10499C00206801F03BFE410408D52268B2F844308F
:1049AC0023F480431B041B0CA2F84430206801F054
:1049BC002DFE820408D52268B2F8443023F400534B
:1049CC001B041B0CA2F84430206801F01FFEC3042A
:1049DC001CD522682046B2F8403023F004031B0497
:1049EC001B0CA2F84030B2F8403023F008031B0433
:1049FC001B0CA2F8403004F07DFA2268B2F8443067
:104A0C0023F480531B041B0CA2F84430206801F0E3
:104A1C00FDFD070546D568462368064619461A4625
:104A2C0003F1200532F8047B954226F8027BF9D17C
:104A3C00B3F8402092B242F00102A3F84020B3F840
:104A4C00402022F001021204120CA3F84020B3F80B
:104A5C0044205605FBD5B3F8442022F4806212049E
:104A6C00120CA3F8442030F8022B21F8042B8D42B1
:104A7C00F9D1B3F84020204692B242F00802A3F8D4
:104A8C004020B3F8442022F400621204120CA3F864
:104A9C004420B3F8402092B242F00402A3F8402024
:104AAC0004F018FA206801F0B1FD82050BD52268DC
:104ABC002046B2F8443023F400731B041B0CA2F8FC
:104ACC00443004F0F6F9206801F0A0FDC30508D5C8
:104ADC002268B2F8443023F480731B041B0CA2F838
:104AEC00443005B0BDE8F08FB0F84460B1B216F0B8
:104AFC000F0640F0C18011F010012DD103889BB23C
:104B0C0003EA090343F400430380B0F8503094F8EF
:104B1C0028209BB203EBC20300EB4300B0F8043433
:104B2C00E26BC3F3090363641344E363204604F0AC
:104B3C00B8F994F82430002B3FF40FAF226C002A04
:104B4C007FF40BAF94F82430216843F08003A1F874
:104B5C004C3084F8242000E70588ABB215F40065CE
:104B6C0021D0B0F8503094F868219BB203EBC2030B
:104B7C0000EB4303B3F80C34B4F86E21C3F3090310
:104B8C00C4F8843104F52C7101F0E4FF226820464E
:104B9C00138823F070031B051B0D43F08003138057
:104BAC0004F070F9D9E61B047FF5D7AE038823F027
:104BBC0070031B051B0D43F080030380B0F85030CD
:104BCC0094F868219BB203EBC20300EB4303B3F8E8
:104BDC000C34C3F30903C4F884318BB1D4F87C11C1
:104BEC0071B1B4F86E2101F0B5FFD4F87C31D4F872
:104BFC008421294613442046C4F87C3104F048F93A
:104C0C0021680B881F053FF5A8AEB1F85030D4F8D9
:104C1C0078519BB201F20C40CDB9C25A22F4F84241
:104C2C001204120CC252C25A92B242F40042C25244
:104C3C000B8823F4804323F070031B041B0C83F4B8
:104C4C00405343F4004343F080030B8085E63E2D34
:104C5C000AD86A08EE0748BF0132920292B2E6E720
:104C6C000F8FFFFF0080FFFF6A09ED0608BF02F1FE
:104C7C00FF3248EA8222F1E730F8263019049FB25D
:104C8C0040F1EE80282130F8263001FB064123F05C
:104C9C0070031B051B0D43F0800320F8263091F8A0
:104CAC00743100F5806CB3B9B0F8503091F86821CC
:104CBC009BB2063303EBC2033CF81350C5F3090552
:104CCC00002D00F0B1802B46B1F86E21D1F87C118B
:104CDC0001F040FFA8E091F86B2191F86831022AAD
:104CEC0040F08180B0F8505017F4804AD1F8802100
:104CFC004FEAC30BADB207F0400E3BD0AB440BF107
:104D0C00020B3CF81B50C5F30905954213D9002240
:104D1C00C1F8802130F8232022F4804222F0700266
:104D2C001204120C82F4005242F4004242F080024F
:104D3C0020F8232004E0521BC1F88021002AE9D07E
:104D4C00BEF1000F0DD030F8232022F4E04222F007
:104D5C0070021204120C42F4004242F0C00220F81D
:104D6C002320002D60D0282101FB06412B46B1F8F1
:104D7C007021ABE75D4406353CF81550C5F30905C9
:104D8C00954212D9C1F880A130F8232022F4804238
:104D9C0022F070021204120C82F4005242F400420F
:104DAC0042F0800220F8232004E0521BC1F880213D
:104DBC00002AE9D0BEF1000F0DD130F8232022F4E7
:104DCC00E04222F070021204120C42F4004242F053
:104DDC00C00220F823203DB3282101FB06412B46BD
:104DEC00B1F8722172E730F8232022F4E04222F06D
:104DFC0070021204120C42F4004242F0C00220F87D
:104E0C00232091F8683130F82320DB0012F4804F16
:104E1C00B0F8502092B256D0023213443CF81350E2
:104E2C00C5F30905002DA1D1282171436318D3F8CE
:104E3C0084212A44C3F88421D3F87C212A44C3F862
:104E4C007C21D3F880211AB1D3F878319D4243D21A
:104E5C00282303FB0643204693F8681104F018F846
:104E6C003A067FF57AAD2825206805FB064530F813
:104E7C0026309BB203EA090343F4004320F82630A2
:104E8C0095F82B3095F82810032B04D01BB1022B6E
:104E9C003AD1FB0538D42825B0F8503005FB064232
:104EAC009BB2023303EBC10300EB4303B3F800C422
:104EBC00176CCCF3090C674515D8002313642046F6
:104ECC0003F0EFFF49E5063213443CF81350C5F3E9
:104EDC000905002DA8D082E701F5B47120682144A2
:104EEC0001F0AAFBBCE7A7EB0C071764002FE6D078
:104EFC0006FB0555D16B536C61446344D163536419
:104F0C00611901F099FB28E5282303FB0643B0F84F
:104F1C0050C04FEAC10A1FFA8CFC17F040021B6C00
:104F2C0000F5806ED44407F4804700F0E4800CF167
:104F3C00020C3EF81CC02822CCF3090C9C4528BF5F
:104F4C00002302FB064238BFA3EB0C031364BFB271
:104F5C00002B51D195F82920002A3AD1B0F8506095
:104F6C000B01B2B200F204461644F25A22F4F84293
:104F7C001204120CF252F25A92B242F40042F25261
:104F8C00B0F8502000F20C4092B21044C25A22F4F5
:104F9C00F8421204120CC252C25A92B242F40042AB
:104FAC00C252204603F07DFF002F00F0E28095F8FE
:104FBC002810226832F8213023F4E04323F07003E8
:104FCC001B041B0C43F4404343F0800322F82130B4
:104FDC00CFE0012AE5D1B0F850600A011FFA86FC37
:104FEC0000F204466644B352B0F8506000F20C4034
:104FFC00B6B230448352D4E76FB130F8213023F489
:10500C00E04323F070031B041B0C43F4404343F0B8
:10501C00800320F82130282303FB064393F84C200F
:10502C00012A40F0A680DA6BD3F848E002EB0C07BB
:10503C005A6CDF6362445A649A6B964529D3AEEB83
:10504C00020EC3F848E095F829C093B2BCF1000FEA
:10505C0044D1B0F850C000F2044E1FFA8CFCF4445A
:10506C0009011ABB3CF8012022F4F8421204120C7C
:10507C002CF801203CF8012092B242F400422CF8AA
:10508C000120282101FB0646328E394601F0C4FA74
:10509C006FE0BEF1000F03D1624683F84CE0D2E71B
:1050AC00002283F84C209A647246CCE73E2A0CD836
:1050BC004FEA520ED20748BF0EF1010E4FEA8E2E68
:1050CC001FFA8EFE2CF801E0DBE74FEA521ED206E7
:1050DC0008BF0EF1FF3E48EA8E2EF1E7BCF1010F3E
:1050EC00CFD1B0F8502009011FFA82FC00F2044223
:1050FC0062445352C5E70CF1060C3EF81CC0BFB21B
:10510C00CCF3090C9C4598BFA3EB0C02282303FBA2
:10511C0006431A64002A52D195F82930002B3CD151
:10512C00B0F850600B01B2B200F204461644F25AC9
:10513C0022F4F8421204120CF252F25A92B242F4D5
:10514C000042F252B0F8502000F20C4092B21044DF
:10515C00C25A22F4F8421204120CC252C25A92B22F
:10516C0042F40042C252204603F09BFE002F3FF453
:10517C001EAF95F82810226832F821309BB223F428
:10518C00E04323F0400383F0300343F4004343F047
:10519C00800322F82130FFF7E0BB012BE3D1B0F8FC
:1051AC0050600B011FFA86FC00F204466644F25272
:1051BC00B0F8506000F20C40B6B23044D2E76FB990
:1051CC0030F8213023F4E04323F070031B041B0C54
:1051DC0043F4404343F0800320F82130282202FBA3
:1051EC00064292F84C30012BC3D1536CD76B6344FD
:1051FC00D2F848E05364936B67449E45D76322D33F
:10520C00AEEB030EC2F848E095F829201FFA83FC98
:10521C00002A3DD1B0F8502000F20C4E92B27244EC
:10522C000901EBB9535A23F4F8431B041B0C5352DA
:10523C00535A9BB243F400435352282101FB0646B8
:10524C006346728E21E7BEF1000F03D1634682F8EC
:10525C004CE0D9E70023936482F84C307346D3E7D3
:10526C003E2B0CD84FEA530EDB0748BF0EF1010E54
:10527C004FEA8E2E1FFA8EFE22F801E0DDE74FEA90
:10528C00531EDB0608BF0EF1FF3E48EA8E2EF1E7F7
:10529C00012AD2D1B0F850309AB200F20C43134428
:1052AC000A0123F802C0C8E711F0800F70B505465B
:1052BC004FF0280401F007001CD0012600FB04412C
:1052CC0029444E700A614A780870CB7002B1C881CB
:1052DC00022B04BF00230B7195F8A832012B12D0BE
:1052EC000123286885F8A83200F010FF002085F80B
:1052FC00A80270BD0026444304F5B4712C44294423
:10530C0084F86961DEE70220F3E711F0800F10B535
:10531C004FF02803044601F0070213D002FB0331BF
:10532C000144012048700A7094F8A832012B12D065
:10533C000123206884F8A83201F024F8002084F8B6
:10534C00A80210BD534303F5B4710144034400207B
:10535C0083F86901E7E70220F3E770B501F0070570
:10536C00282100266943441801F5B4710144C4E9AD
:10537C005F23C4F8846184F8696184F8685100681B
:10538C0001F05AF9304670BD282301F0070103FBE8
:10539C000100D0F88401704770B501F00705282191
:1053AC0001FB05040026C4E90F23012205FB0111B2
:1053BC0084F84C200144A364666484F8292084F8A2
:1053CC002850006801F038F9304670BD38B5436894
:1053DC0001F007059D42044628D811F0800F4FF0CC
:1053EC0028031AD0012205FB033101444A70012322
:1053FC000D708B7094F8A8229A4219D0206884F80A
:10540C00A83201F090F825B9206804F52C7101F050
:10541C0001F9002084F8A80238BD00224B4303F5A3
:10542C00B4710344014483F86921E0E70120F3E7F8
:10543C000220F1E738B5436801F00F029A420446A6
:10544C0025D811F0800F4FF0280301F0070215D07A
:10545C0002FB033101440120487000250A708D7055
:10546C0094F8A832012B14D00123206884F8A832B8
:10547C0001F079F8284684F8A85238BD534303F557
:10548C00B47101440344002083F86901E5E701206D
:10549C00F3E70220F1E710B5282411F0800F1BBFB1
:1054AC0001F0070101FB044104FB0100401808BF97
:1054BC0000F5B47099B21AB90273C180002010BD06
:1054CC00012283600273F9E7704700002DE9F34174
:1054DC00054638B30368DB0710D42B689F075ED4EE
:1054EC002B68190700F195802B685A0700F1C180D1
:1054FC00E869002840F02C81002029E0904C63687A
:10550C0003F00C03042B07D0636803F00C03082B87
:10551C000AD16368DE0307D523689C03DDD56B686D
:10552C00002BDAD1012013E06B68B3F5803F12D168
:10553C00236843F480332360FFF756F8064623684C
:10554C009803CAD4FFF750F8801B6428F7D90320BE
:10555C0002B0BDE8F0819BB9236823F4803323604B
:10556C00236823F480232360FFF73EF80646236864
:10557C009903B2D5FFF738F8801B6428F7D9E6E712
:10558C00B3F5A02F236803D143F480232360CFE726
:10559C0023F480332360236823F48023CBE7684C07
:1055AC00636813F00C0F07D0636803F00C03082B2F
:1055BC0010D16368DA030DD423689B0702D52B69DD
:1055CC00012BAFD123686A6923F0F80343EAC203C5
:1055DC00236085E72A695B4B6AB101221A60FFF7E9
:1055EC0003F8064623689F07ECD4FEF7FDFF801BEB
:1055FC000228F7D9ABE71A60FEF7F6FF06462368D8
:10560C0098077FF56DAFFEF7EFFF801B0228F6D9E8
:10561C009DE7AA694A4E4B4BE2B10122C3F88024A4
:10562C00FEF7E2FF0446736A9B070DD54FF4FA525E
:10563C00454B1B68B3FBF2F3019300BF019B5A1E51
:10564C000192002BF9D14FE7FEF7CEFF001B022889
:10565C00E9D97CE7C3F88024FEF7C6FF0446736AD9
:10566C009F077FF541AFFEF7BFFF001B0228F6D95D
:10567C006DE7334CE369D80024D40127E36943F088
:10568C008053E361E36903F080530093009B2F4E3A
:10569C003368D90518D5EB68012B26D1236A43F062
:1056AC0001032362FEF7A0FF41F288380646236A05
:1056BC009B073FD5002F3FF41BAFE36923F08053CA
:1056CC00E36115E70027E2E7336843F48073336046
:1056DC00FEF78AFF80463368DA05DCD4FEF784FFD8
:1056EC00A0EB08006428F6D931E7ABB9236A41F284
:1056FC00883823F001032362236A23F00403236216
:10570C00FEF772FF0646236A9807D3D5FEF76CFFA7
:10571C00801B4045F7D91AE7052B236A03D143F0C8
:10572C0004032362BAE723F001032362236A23F004
:10573C000403B6E7FEF758FF801B4045B7D906E7D0
:10574C000010024000004242200000200070004087
:10575C002A4C636803F00C03082B3ED00022284B24
:10576C0002281A662CD1FEF73FFF064623689901E2
:10577C0020D42B6AB3F5803F05D16268A96822F466
:10578C0000320A436260696A62680B4322F4741245
:10579C001343012263601A4B1A66FEF725FF054678
:1057AC0023689A013FF5A8AEFEF71EFF401B0228A6
:1057BC00F6D9CCE6FEF718FF801B0228D6D9C6E630
:1057CC00FEF712FF054623689B017FF595AEFEF7A9
:1057DC000BFF401B0228F6D9B9E601283FF4B8AEFE
:1057EC0063682A6A03F4803191427FF49BAE6A6A43
:1057FC0003F4701393423FF47FAE93E60010024023
:10580C000000424230B5184B87B002AC03F11005D2
:10581C00224618685968083303C2AB421446F7D1C4
:10582C0040F201231149ADF804304B6803F00C022F
:10583C00082A17D1C3F3834218326A44DB0312F8E7
:10584C00100C0CD54B680A4AC3F340435043183331
:10585C006B4413F8143CB0FBF3F007B030BD054BB0
:10586C005843FAE70248F8E7399D00080010024057
:10587C0000127A0000093D002DE9F0410D46044666
:10588C0010B90120BDE8F081444A136803F0070306
:10589C008B4228D321688E0730D4CA0743D43F4AA1
:1058AC00136803F00703AB4265D822683C4D12F035
:1058BC00040F6CD1130706D56B68226923F460536F
:1058CC0043EAC2036B60FFF79DFF6B68354AC3F375
:1058DC000313D35CD840344B1860344B1868FEF774
:1058EC0041FE0020CEE7136823F007030B4313603F
:1058FC00136803F007038B42C3D1CBE7284B11F09D
:10590C00040F1EBF5A6842F4E0625A60080742BF97
:10591C005A6842F460525A605A68A06822F0F00249
:10592C0002435A60B9E762681D4E012A33681AD1E6
:10593C0013F4003FA5D0736841F2883823F00303B9
:10594C0013437360FEF750FE07467368626803F0FA
:10595C000C03B3EB820FA2D0FEF746FEC01B4045F2
:10596C00F3D903208EE7022A02D113F0007FE1E77E
:10597C0013F0020FDEE7136823F007032B431360C9
:10598C00136803F00703AB427FF47BAF8DE76B68C2
:10599C00E16823F4E0630B436B608BE7002002406B
:1059AC0000100240FC9D0008200000200800002090
:1059BC0003682DE9F341D907054620D5364CE36938
:1059CC00DA0032D40126E36943F08053E361E369E2
:1059DC0003F080530193019B304F3B68DB0526D5C8
:1059EC00236A13F4407336D1236A6A6823F4407334
:1059FC00134323621EB1E36923F08053E3612868EB
:105A0C00830706D52449AB684A6822F440421A43FE
:105A1C004A6010F010001BD01F4AE9685368002040
:105A2C0023F480030B43536012E00026D4E73B6859
:105A3C0043F480733B60FEF7D7FD80463B68D80586
:105A4C00CED4FEF7D1FDA0EB08006428F6D90320D4
:105A5C0002B0BDE8F0816A6802F440729A42C3D089
:105A6C0001200F4A236AC2F84004002023F440713D
:105A7C00C2F840042162D907B6D5FEF7B5FD41F254
:105A8C0088380746236A9A07AED4FEF7ADFDC01BD3
:105A9C004045F7D9DBE700BF001002400070004022
:105AAC000000424270477047036810B51A690446FB
:105ABC0091070ED5DA6892070BD56FF002021A61C6
:105ACC00012202779B699B0777D002F05BF80023D9
