:020000040800F2
:1000000000000120497300089973000899730008E3
:1000100099730008997300089973000800000000A4
:1000200000000000000000000000000099730008BC
:10003000997300080000000099730008AD6900087A
:100040009973000899730008997300089973000860
:100050009973000899730008A5710008AB71000836
:10006000B1710008B7710008BD71000899730008EC
:100070009973000899730008997300089973000830
:100080009973000899730008997300080000000034
:10009000000000000000000000000000C371000824
:1000A0003D770008B576000851770008D97600083A
:1000B000ED760008017700081577000899730008AD
:1000C00099730008997300089973000899730008E0
:1000D00099730008B9700008D17000080000000092
:1000E000D9710008997300083D8C000800000000D9
:1000F00000000000000000000000000099730008EC
:10010000000000009973000829770008997300081F
:1001100000000000000000000000000000000000DF
:10012000997300089973000899730008997300087F
:1001300099730008000000000000000000000000AB
:10014000000000000000000000000000318C0008EA
:10015000997300089973000899730008ED700008FE
:100160009973000899730008000000000000000067
:10017000000000000000000000000000000000007F
:10018000000000009973000800000000000000005B
:040190009973000857
:10019400034613F8012B002AFBD1181A01387047C3
:1001A40053B94AB9002908BF00281CBF4FF0FF31DA
:1001B4004FF0FF3000F00CB8ADF1080C6DE904CE3F
:1001C40009F0B0FCDDF804E0DDE9022304B0704777
:1001D400704700BF10B5054C237833B9044B13B1F5
:1001E4000448AFF300800123237010BD18020020DF
:1001F40000000000009E000808B5034B1BB1034932
:100204000348AFF3008008BD000000001C0200207A
:10021400009E000838B5C82204460D4698300021D7
:1002240009F048FAAD084FF0FF334FF0FF32C4E94C
:100234002823C4E92A23C4E93623C4E93E23C4E9B4
:100244004823C4E94E23C5F1C8050023C4F89030FF
:10025400C4F8945038BD00002DE9F04FCBB0CDE97F
:100264000223D0F89040039B00901B1B93423791CC
:10027400009B0AD9181909F00FFA029B1C44009B31
:10028400C3F890404BB0BDE8F08FD3F89830049396
:10029400009BD3F89C300593009BD3F8A0300E93B9
:1002A400009BD3F8A4300F93009BD3F8A830149389
:1002B400009BD3F8AC301593009BD3F8B0301C935B
:1002C400009BD3F8B4301D93009BD3F8B83022932D
:1002D400009BD3F8BC302393009BD3F8C030069323
:1002E400009BD3F8C4300793009BD3F8C830109315
:1002F400009BD3F8CC301193009BD3F8D0301693E5
:10030400009BD3F8D4301793009BD3F8D8301E93B6
:10031400009BD3F8DC301F93009BD3F8E030249388
:10032400009BD3F8E4302593009BD3F8E83008937E
:10033400009BD3F8EC300993009BD3F8F030129370
:10034400009BD3F8F4301393009BD3F8F830189340
:10035400009BD3F8FC301993009BD3F80031209311
:10036400009BD3F804312193009BD3F808312693E2
:10037400009BD3F80C312793009BD3F810310A93D8
:10038400009BD3F814310B93009BD3F818310C93D2
:10039400009BD3F81C310D93009BD3F820311A93A2
:1003A400009BD3F824311B93009BD3F828312F935F
:1003B400009BD3F82C313093009BD3F83031339326
:1003C400009BD3F834313493009BD3F8383129930C
:1003D400009BD3F83C312A93009BD3F840312B93F4
:1003E400009BD3F844312C93009BD3F848312D93D0
:1003F400009BD3F84C312E93009BD3F850313193AA
:10040400009BD3F854313293009BD3F85831359381
:10041400009BD3F85C313693029B002B03F02785B5
:10042400039B37991D1B029B9D4228BF1D46009BC1
:100434002A46181909F030F9379B2B443793029B4D
:100444005B1B0293039B2C44A342E5D1009B0499BC
:10045400D3E900235140059A04915A40009B059228
:10046400D3E902230E9951400F9A0E915A40009BF2
:100474000F92D3E9042314995140159A14915A40C8
:10048400009B1592D3E906231C9951401D9A1C9197
:100494005A40009B1D92D3E908232299514022918E
:1004A400239A06995A40009B2392D3E90A23514088
:1004B400079A06915A40009B0792D3E90C2310999E
:1004C4005140119A10915A40009B1192D3E90E2386
:1004D40016995140179A16915A40009B1792D3E9E6
:1004E40010231E9951401F9A1E915A40039B1F923C
:1004F400482B56D0009B2499D3E912235140259AC6
:1005040024915A40009B2592D3E914230899514021
:10051400099A08915A40009B0992D3E9162312992B
:100524005140139A12915A40009B1392D3E9182315
:1005340018995140199A18915A40039B1992682BA3
:100544002FD0009B2099D3E91A235140219A20915E
:100554005A40009B2192D3E91C2326995140279AA3
:1005640026915A40009B2792D3E91E230A995140B1
:100574000B9A0A915A40009B0B92D3E920230C99C1
:1005840051400D9A0C915A40039B0D92882B08D030
:10059400009B1A99D3E9222351401B9A1A915A407D
:1005A4001B92014B019301E0189E00080E9B109AC8
:1005B40083EA02040F9B119A83EA0200129B249A95
:1005C4005C40139B58400C9B5C400D9B58402B9BFC
:1005D40084EA03012C9B43402893229B25985A408C
:1005E400239B4340269842402798434033984240F7
:1005F4003498434035984240369843403893289B7A
:1006040016984FEA410C5F004CEAD37C389B47EACA
:10061400D1775F40149B83EA000B159B179883EAFC
:10062400000A189B8BEA030B199B8AEA030A1A9B9C
:100634008BEA030B1B9B8AEA030A2D9B0698079CF3
:100644008BEA030B2E9B8AEA030A049B434005981A
:1006540080EA040908981E9C4340099889EA000925
:100664000A9843400B9889EA0009299843402A983C
:1006740089EA00091C9880EA04081D981F9C80EAF6
:10068400040E209888EA000821988EEA000E2F981C
:1006940088EA000830988EEA000E319888EA00084B
:1006A40032984FEA48048EEA000E44EADE744C4065
:1006B4004FEA4E00289940EAD87041402891389971
:1006C400389849008CEA020C41EAD27152004FEA90
:1006D4004A054FEA4B0642EAD07282EA0B0245EA27
:1006E400DB7546EADA764FEA490B5E404BEAD37B88
:1006F4005B0043EAD97383EA0808049B8CEA03038A
:100704000493059B7B400593069B81EA0A018CEACE
:10071400030A079B85EA090587EA0309089B0998E8
:100724008BEA0E0E87EA000B0A988CEA00003890D8
:100734000B9878400B9029988CEA03038CEA000C00
:100744002A98089347400E98289B70400E900F9863
:1007540068402990109870402A9011986840119030
:100764001298704012901398684039900C98704019
:100774003A900D9868403B902B9846402C98454001
:10078400149860402B90159858402C90169860400F
:100794003C90179858403D90189860403E901998A6
:1007A40058403F901A98604040901B9858404190A0
:1007B4002D9844402E98434018461C9B5340289340
:1007C4001D9B4B402D931E9B53402E931F9B4B40D0
:1007D4004293209B53404393219B4B4044932F9B34
:1007E40053402F93309B4B403093319B5340319374
:1007F400329B5940229B88EA03033293239B8EEA5F
:1008040003034593249B88EA03034693259B8EEABE
:1008140003034793269B88EA03034893279B8EEAA6
:1008240003034993339B88EA03033393349B8EEA8F
:1008340003033493359B88EA0308369B4FEA1A7204
:100844008EEA0303359342EA09134FEA19790693B2
:1008540049EA0A130793089B4FEACB0242EA53730F
:100864000993089B0B9ADB0043EA5B730893389B5C
:10087400DB0D43EA42230A93D30D389A43EA422319
:100884000B93BB0443EA9C334FEA8C4C0D934CEA24
:1008940097330C93299B0E9A5B0043EAD2730F9310
:1008A400299B4FEA420949EAD3730E932A9B119A72
:1008B4001B0D43EA02331093130D2A9A43EA0233C1
:1008C4001193399B129A9B0243EA92531393930216
:1008D400399A43EA925312933A9B3B9ADB0C43EACC
:1008E40042331493D30C3A9A4FEA850E43EA4233C7
:1008F40015934EEA9673B600179346EA95731693CA
:100904002B9B2C9A9B0843EA8273189393082B9A87
:1009140043EA827319933D9B3C9A9B0143EA926399
:100924001B9393013D9A43EA92631A933E9B3F9A29
:100934005B0D43EAC2231C933E9B570D47EAC32336
:100944001D93419B409ADB0343EA52431F93D30315
:10095400419A43EA52431E932D9B2D9A1E07289BCE
:100964004FEAD40B46EA13161B074BEA407B43EAD3
:100974001213C0082E9A209340EA44744298520AF3
:1009840042EAC05221922E9A400A40EAC25222926E
:10099400449A4398520642EAD0122492449A40065A
:1009A40040EAD2122392309A4FEA42592F9A49EAE6
:1009B400D2295005309A40EAD220319A120A42EAEA
:1009C400016225920A0A319942EA01622692459A05
:1009D4004FEAC26A329A499D349B4AEA52122892DB
:1009E400329A4FEAC26E459A4EEA52122792479AB9
:1009F4001705469A47EA12371105479A41EA123118
:100A0400489A520E42EAC51229926A0E489D42EA59
:100A1400C5122A92349A1502339A45EA12651202D3
:100A240042EA1362359B4FEA883E4EEA934E4FEA00
:100A3400833C1C9B60EA030A1D9B4CEA984C69EAC0
:100A44000308109B8AEA03032B93119B88EA030390
:100A54002C931C9B00EA0E0A8AEA03032D931D9B28
:100A640009EA0C0888EA03032E93049B43EA0E0A5E
:100A7400059B43EA0C088AEA00032F9388EA0903DA
:100A84003093049B109803EA0008059B11981840C2
:100A940088EA0E03319380EA0C033293089B14987E
:100AA40043EA010A099B43EA0709209B8AEA0303F4
:100AB400339389EA06033493089B03EA000C099BE9
:100AC400159818408CEA0103359380EA070336939E
:100AD400149B63EA0B0C159B63EA0400089B8CEAE5
:100AE40003030893099B43400993209B4BEA030C9F
:100AF400149B8CEA03031493159B44EA06004340B9
:100B04001593209B0B403E4083EA0B03209386EA17
:100B140004033893239C1A9B23431B9C249E44EA7E
:100B2400060B0E9C634039930F9B8BEA03033A93A5
:100B3400239B03EA020433461A9E74403B941B9C95
:100B44002B4063403C930C9B0F9CD04323EA02024E
:100B54000D9BE94323EA0505239B53402393249BE0
:100B64000E9A6B4024930C9B1A430D9B23434B40DA
:100B740042403E930E9B3D921B9A03EA060923468C
:100B840013400C9A89EA02020C920D9A53400D9379
:100B94001E9BDA431F9BD843069B1299139C194052
:100BA400079B2340279C61400E9128991F9C4B4032
:100BB4000F931E99129B1943139B2343069C614078
:100BC4001A9107991F9C4B401B931E99259B63EA1E
:100BD4000103269961EA0401129C63401293139B5A
:100BE400289C4B4013932799259B1940269B23400F
:100BF4004A4043401E921F93279A069B1A43079B21
:100C040043EA0409259B2A9953400793269B219A7A
:100C140089EA03032593219BDE43229BDD43299B21
:100C240023EA020C2A9B229A23EA0207189B299A98
:100C34008CEA03032693199B7B4027930A9B1A4350
:100C44000B9B0B4372406B4028923F93169A0A9B6E
:100C540003EA02040B9B179A03EA0200299B189AE1
:100C64006340299380EA01032A93169B199913433D
:100C7400179A0A430A994B400A930B9B22991D9C8D
:100C840053400B93219A189B1340199A02EA0100CE
:100C9400169A049953401693179B019A434017934D
:100CA400019B52681B681C984B4005994A40109957
:100CB400014311984B4040EA0407069387EA020374
:100CC40010933B9A359B83EA0204369B3C9A83EA51
:100CD40002001A9B5C401B9B5840289B5C403F9B36
:100CE40058402B9B84EA03012C9B43400493319B83
:100CF400209A38983A9C5A40329B43400C98424080
:100D04000D98434007984240259843401698424026
:100D1400179843400593049B29984FEA410C5F00C0
:100D24004CEAD37C059B47EAD1775F402D9B83EA4D
:100D3400000B2E9B2A9883EA000A089B39988BEAB9
:100D4400030B099B8AEA030A239B8BEA030B249B6C
:100D54008AEA030A129B8BEA030B139B8AEA030AAF
:100D6400339B4340349880EA04090E9843400F981B
:100D740089EA000906984340109889EA00092698F0
:100D840043402798149C89EA00092F9880EA0408B4
:100D94003098159C80EA040E3D9888EA00083E9835
:100DA4008EEA000E1E9888EA00081F988EEA000E4C
:100DB4000A9888EA00080B984FEA48048EEA000E65
:100DC40044EADE744C404FEA4E00049940EAD8707D
:100DD400414004910599059849008CEA020C41EAC6
:100DE400D27152004FEA4A054FEA4B0642EAD072EA
:100DF40082EA0B0245EADB7546EADA764FEA490BEA
:100E04005E404BEAD37B5B0043EAD97383EA08086C
:100E1400069B3A9883EA0C030593109B8BEA0E0E0B
:100E24007B4080EA070B0E980693339B80EA0C0004
:100E340083EA0C030E900F981093349B784085EA54
:100E440009050F9083EA07092698399B83EA0C0366
:100E540080EA0C0C2798119347402B9881EA0A01E9
:100E640080EA060A2C98049B6840189035987040D4
:100E74001990369868401C903B9870401D903C989F
:100E8400684021901A9870401A901B9868401B90F3
:100E9400289846403F9845402D98604022902E98CF
:100EA4005840269008986040279009985840289008
:100EB40023986040239024985840249012986040CE
:100EC4002B90139858402C90299844402A984340DA
:100ED40018462F9B53402993309B4B402A93149BD5
:100EE40053402D93159B4B402E933D9B53402F9382
:100EF4003E9B4B4030931E9B534033931F9B4B4070
:100F040034930A9B534035930B9B5940319B83EA9E
:100F140008033193329B83EA0E033293209B83EAC6
:100F240008033693389B83EA0E0338930C9B83EAB9
:100F3400080339930D9B83EA0E033A93079B83EAD4
:100F440008033B93259B83EA0E033C93169B83EA99
:100F54000808179B83EA0E033D93109B1A0F42EA7D
:100F640009130493109B4FEA197949EA0313079371
:100F7400119B4FEACB0242EA53730993119B0F9AD8
:100F8400DB0043EA5B7308930E9BDB0D43EA4223C9
:100F94000A93D30D0E9A43EA42230B93BB0443EA0C
:100FA4009C334FEA8C4C0D934CEA97330C93189B6B
:100FB4001C9A5B0043EADA730F93189B4FEA4A0AC0
:100FC4004AEAD3730E93199B1B0D43EA0233109321
:100FD400130D199A43EA02331193219B1D9A9B0224
:100FE40043EA925313939302219A43EA925312933E
:100FF4001A9B1B9ADB0C43EA42331493D30C1A9AC0
:101004004FEA850E43EA423315934EEA9673B600CF
:10101400179346EA95731693229B269A9B0843EAF4
:10102400827318939308229A43EA82731993289B34
:10103400279A9B0143EA92631B939301289A43EAFC
:1010440092631A93239B249A5B0D43EAC2231C9355
:10105400239B550D45EAC3231D932C9B2B9ADB033D
:1010640043EA52431F93D3032C9A43EA52431E93F9
:101074002A9B4FEA037C299B2E9A4CEA131C1D07DA
:101084002A9B45EA13152D9B5B0A43EAC2534FEA98
:10109400D40B4BEA407B2093C0082D9B40EA447458
:1010A400500A40EAC3532193309B2F9A5B0643EACC
:1010B400D2132393309B500640EAD3132293349BDC
:1010C4004FEA4359339B49EAD3295805349B40EAF4
:1010D400D320359B1A0A42EA01632493359B0A0AFA
:1010E40042EA03632593329B369A3A994FEAC36ADC
:1010F400319B4AEA53132793319B4FEAC36E329BC9
:101104004EEA53132693389B1B0543EA1233160504
:10111400389A289346EA1236399A520E42EAC11294
:1011240029924A0E39993D9B3C9F42EAC1122A9268
:101134003C9A11023B9A4FEA883E4EEA934E41EAAA
:1011440012611C9B120242EA17623D9F60EA030A85
:101154001D9BBF0347EA984769EA0308109B8AEA84
:1011640003032B93119B88EA03032C931C9B00EA33
:101174000E0A8AEA03032D931D9B09EA070888EAED
:1011840003032E93059B43EA0E0A069B43EA0708D2
:101194008AEA00032F9388EA090310983093059B89
:1011A40003EA0008069B1198184088EA0E0331935D
:1011B40080EA07033293089B289843EA060A099BAE
:1011C40043EA00098AEA0503339389EA0C0334935A
:1011D400089B149803EA0007099B1598184087EAAE
:1011E40006033593289B43403693149B63EA0B070D
:1011F400159B63EA0400089B7B400893099B4340CA
:101204000993149B4BEA05077B401493159B44EA0E
:101214000C0043401593289B2E400CEA030C86EAED
:101224000B0328938CEA0403229D38931A9B239E74
:101234002B431B9D45EA060B0E9D6B4039930F9B78
:101244008BEA03033A93229B03EA020533461A9E70
:1012540075403B951B9D0B406B403C930C9BD443CA
:1012640023EA02020D9BC84323EA0101229B534057
:101274002293239B0E9A4B4023930C9B0F991A4362
:101284000D9B0B43434062403E930E9B3D920C9A50
:10129400139C03EA060A8AEA02020B460C920D9A90
:1012A40012992B4053400D931E9BDA431F9BD84346
:1012B400049B1940079B2340269C61400E9127996B
:1012C4001F9C4B400F931E99129B1943139B23435E
:1012D400049C61401A9107991F9C4B401B931E99D3
:1012E400249B63EA0103259961EA0401129C63408B
:1012F4001293139B279C4B4013932699249B1940CC
:10130400259B23404A4043401E921F93269A049BE8
:101314001A43079B43EA0409249B53400793259BE4
:10132400209A89EA03032493209BDE43219BDD4317
:10133400299B23EA020C2A9B219A23EA0207189B81
:101344008CEA03032593199B7B4026930A9B299AD5
:101354002A991A430B9B0B4372406B4027923F938D
:10136400169A0A9B03EA02040B9B179A03EA0200EB
:10137400299B189A6340299380EA01032A93169BB8
:1013840019991343179A0A430A994B400A930B9BE2
:10139400219953400B93209A189B1340199A02EAFF
:1013A4000108169A53401693179B019A88EA03037F
:1013B4001793019B9B68D26805991C981D9C4B4010
:1013C40006994A401099014311984B4040EA04059C
:1013D400069385EA02031093279A3B9B83EA02044F
:1013E4003C9B3F9A83EA02002B9B079A5C402C9B10
:1013F4005840359B5C40369B58401A9B84EA030155
:101404001B9B43400493289B24985A40389B434099
:1014140016984240179843403198424032984340CE
:101424000C9842400D9843400593049B4FEA410CAD
:101434005F004CEAD37C059B22983A9C47EAD1771B
:101444005F40089B83EA000B099B239883EA000A08
:101454002D9B39988BEA030B2E9B8AEA030A129B75
:101464008BEA030B139B8AEA030A299B8BEA030B7F
:101474002A9B8AEA030A339B4340349880EA04098E
:101484000E98149C43400F9889EA0009259843401C
:10149400269889EA000906984340109889EA0009C9
:1014A4002F9880EA04083098159C80EA040E1E9850
:1014B40088EA00081F988EEA000E3D9888EA000822
:1014C4003E988EEA000E0A9880EA08080B984FEAC4
:1014D400480480EA0E0E44EADE744C404FEA4E00A3
:1014E400049940EAD870414004910599059849004F
:1014F4008CEA020C41EAD27152004FEA4A054FEAE3
:101504004B0642EAD07282EA0B0245EADB7546EAF0
:10151400DA764FEA490B5E404BEAD37B5B0043EA41
:10152400D97383EA0808069B3A9883EA0C03059367
:10153400109B8BEA0E0E7B4080EA070B0E980693F5
:10154400339B80EA0C0083EA0C030E900F981093EF
:10155400349B784085EA09050F9083EA07092598AA
:10156400399B83EA0C0380EA0C0C269811934740BC
:101574002B9881EA0A0180EA060A2C9868401890A0
:10158400359870401990369868401C903B9870408C
:101594001D903C98684020901A9870401A901B98AF
:1015A40068401B902798049B46403F9845402D98DF
:1015B400604021902E9858402590089860402690CD
:1015C40009985840279022986040229023985840C8
:1015D4002390129860402B90139858402C9029988F
:1015E40044402A98434018462F9B53402993309BEC
:1015F4004B402A93149B53402D93159B4B402E93A1
:101604003D9B53402F933E9B4B4030931E9B534036
:1016140033931F9B4B4034930A9B534035930B9B4E
:101624005940319B83EA08033193329B83EA0E03CA
:101634003293289B83EA08033693389B83EA0E038C
:1016440038930C9B83EA080339930D9B83EA0E03BA
:101654003A93079B83EA08033B93249B83EA0E0394
:101664003C93169B83EA0808179B83EA0E033D9379
:10167400109B1A0F42EA09130493109B4FEA19793D
:1016840049EA03130793119B4FEACB0242EA5373CF
:101694000993119B0F9ADB0043EA5B7308930E9B3B
:1016A400DB0D43EA42230A93D30D0E9A43EA422305
:1016B4000B93BB0443EA9C334FEA8C4C0D934CEAE6
:1016C40097330C93189B1C9A5B0043EADA730F93CD
:1016D400189B4FEA4A0A4AEAD3730E93199B1B0DCF
:1016E40043EA02331093130D199A43EA0233119318
:1016F400209B1D9A9B0243EA925313939302209AD0
:1017040043EA925312931A9B1B9ADB0C43EA42332B
:101714001493D30C1A9A4FEA850E43EA4233159375
:101724004EEA9673B600179346EA95731693219B77
:10173400259A9B0843EA827318939308219A43EAF3
:1017440082731993279B269A9B0143EA92631B9306
:101754009301279A43EA92631A93229B239A5B0D7F
:1017640043EAC2231C93530D229A43EAC2231D93D6
:101774002C9B2B9ADB0343EA52431F93D3032C9AEB
:1017840043EA52431E932A9B2A9A1F07299B4FEA36
:10179400D40B47EA13171B074BEA407B43EA1213A7
:1017A400C0082D9A209340EA44742E98520A42EAC3
:1017B400C05221922D9A400A40EAC2522292309A93
:1017C4002F98520642EAD01224924206309842EAF6
:1017D400D0122392349A4FEA4259339A3D9B3C9E4D
:1017E40049EAD2295005349A40EAD220359A120A9D
:1017F40042EA016225920A0A359942EA0162269276
:10180400329A3A994FEAC26A319A4AEA52122892B3
:10181400319A4FEAC26E329A4EEA52122792389A9D
:101824001505369A45EA12354FEA025C389A4CEAB5
:10183400123C399A520E42EAC11229924A0E39993F
:1018440042EAC1122A923C9A11023B9A4FEA883E1C
:101854004EEA934E41EA12611C9B120242EA16625E
:101864003D9E60EA030A1D9BB60346EA984669EA70
:101874000308109B8AEA03032B93119B88EA030352
:101884002C931C9B00EA0E0A8AEA03032D931D9BEA
:1018940009EA060888EA03032E93059B43EA0E0A25
:1018A400069B43EA06088AEA00032F9388EA0903A1
:1018B40010983093059B03EA0008069B1198184082
:1018C40088EA0E03319380EA06033293089B149846
:1018D40043EA0C0A099B43EA0509209B8AEA0303AD
:1018E400339389EA07033493089B03EA0006099BB0
:1018F4001598184086EA0C03359380EA050336935D
:10190400149B63EA0B06159B63EA0400089B73406F
:101914000893099B43400993209B4BEA0306149BBD
:1019240073401493159B249E44EA07004340159387
:10193400209B03EA0C032F4083EA0B03209387EADE
:101944000403239D38931A9B2B431B9D45EA060BE6
:101954000E9D6B4039930F9B8BEA03033A93239BB1
:1019640003EA020533461A9E75403B951B9D0B40C6
:101974006B403C930C9BD44323EA02020D9BC84367
:1019840023EA0101239B53402393249B0E9A4B404B
:1019940024930C9B0F991A430D9B0B4343406240C5
:1019A4003E930E9B3D920C9A03EA060A8AEA0202CF
:1019B4000C920B460D9A1299139C2B4053400D9395
:1019C4001E9BDA431F9BD843049B1940079B23406B
:1019D400279C61400E9128991F9C4B400F931E99A0
:1019E400129B1943139B2343049C61401A9107994A
:1019F4001F9C4B401B931E99259B63EA0103269968
:101A040061EA0401129C63401293139B289C4B408F
:101A140013932799259B1940269B23404A40434012
:101A24001E92279A1F93049B2A991A43079B43EA01
:101A34000409259B53400793269B219A89EA0303B3
:101A44002593219BDE43229BDD43299B23EA020C41
:101A54002A9B229A23EA0207189B299A8CEA0303F9
:101A64002693199B7B4027930A9B1A430B9B0B439A
:101A740072406B4028923F93169A0A9B03EA020431
:101A84000B9B179A03EA0200299B6340299380EA7F
:101A940001032A93169B189A19991C981D9C1343A9
:101AA400179A0A430A994B400A930B9B2299534075
:101AB4000B93219A189B1340199A02EA0108169A6B
:101AC400059953401693179B019A88EA03031793C9
:101AD400019B52691B694B4006994A40109908437F
:101AE400119943402143069381EA020310933B9AE0
:101AF400359B83EA0204369B3C9A83EA02001A9BD4
:101B04005C401B9B209A5840289B5C403F9B58405C
:101B14002B9B84EA03012C9B43400493319B38980C
:101B24005A40329B43400C9842400D9843400798DA
:101B340042402598434016984240179843400593E5
:101B4400049B29984FEA410C5F004CEAD37C059B27
:101B540047EAD1775F402D9B83EA000B2E9B2A989E
:101B640083EA000A089B39988BEA030B099B8AEAEB
:101B7400030A239B8BEA030B249B8AEA030A129B26
:101B84008BEA030B139B8AEA030A339B4340349882
:101B94003A9C80EA04090E98149C43400F9889EA01
:101BA400000906984340109889EA000926984340A2
:101BB400279889EA00092F9880EA04083098159C30
:101BC40080EA040E3D9888EA00083E988EEA000EEA
:101BD4001E9888EA00081F988EEA000E0A9888EA80
:101BE40000080B984FEA48048EEA000E44EADE74BB
:101BF4004C404FEA4E00049940EAD87041400491A9
:101C04000599059849008CEA020C41EAD271520008
:101C14004FEA4A054FEA4B0642EAD07282EA0B02C7
:101C240045EADB7546EADA764FEA490B5E404BEA51
:101C3400D37B5B0043EAD97383EA0808069B3A988E
:101C440083EA0C030593109B7B400693339B83EA42
:101C54000C031093349B8BEA0E0E85EA090580EA87
:101C6400070B83EA07090E98399B80EA0C0083EA84
:101C74000C0311930E900F98049B78400F902698B4
:101C840080EA0C0C279847402B9881EA0A0180EAE5
:101C9400060A2C9868401890359870401990369828
:101CA40068401C903B9870401D903C98684021907F
:101CB4001A9870401A901B9868401B9028984640C8
:101CC4003F9845402D98604022902E985840269089
:101CD40008986040279009985840289023986040BD
:101CE4002390249858402490129860402B90139885
:101CF40058402C90299844402A98434018462F9BDA
:101D040053402993309B4B402A93149B53402D936B
:101D1400159B4B402E933D9B53402F933E9B4B4032
:101D240030931E9B534033931F9B4B4034930A9B29
:101D3400534035930B9B5940319B83EA08033193FD
:101D4400329B83EA0E033293209B83EA0803369383
:101D5400389B83EA0E0338930C9B83EA0803399378
:101D64000D9B83EA0E033A93079B83EA08033B9394
:101D7400259B83EA0E033C93169B83EA0808179B72
:101D840083EA0E033D93109B1A0F42EA091304934E
:101D9400109B4FEA197949EA03130793119B4FEA01
:101DA400CB0242EA53730993119B0F9ADB0043EA77
:101DB4005B7308930E9BDB0D43EA42230A93D30D16
:101DC4000E9A43EA42230B93BB0443EA9C334FEA43
:101DD4008C4C0D934CEA97330C93189B5B0043EAAD
:101DE400DA730F93189B4FEA4A0A4AEAD3730E93A5
:101DF400199B1C9A1B0D43EA02331093130D199A75
:101E040043EA02331193219B1D9A9B0243EA9253A6
:101E140013939302219A43EA925312931A9B1B9AA7
:101E2400DB0C43EA42331493D30C1A9A4FEA850E1F
:101E340043EA423315934EEA9673B600179346EA83
:101E440095731693229B269A9B0843EA82731893F0
:101E54009308229A43EA82731993289B279A9B0139
:101E640043EA92631B939301289A43EA92631A9379
:101E7400239B249A5B0D43EAC2231C93530D239A9C
:101E840043EAC2231D932C9B2B9ADB0343EA524360
:101E94001F93D3032C9A43EA52431E932A9B2E9AF0
:101EA4001E07299B46EA13161D072A9B45EA1315AC
:101EB4002D9B5B0A43EAC2534FEAD40B4BEA407BA7
:101EC4002093C0082D9B40EA4474500A40EAC3534F
:101ED4002193309B2F9A5B0643EAD2132393530634
:101EE400309A43EAD2132293349B4FEA4359339BEB
:101EF40049EAD3295805349B40EAD320359B1A0A72
:101F040042EA01632493359B0A0A42EA0363259358
:101F1400329B4FEAC36A319B4AEA53132793319B9E
:101F24004FEAC36E329B4EEA53132693389B369A7C
:101F34003A991B0543EA12331705389A289347EA5E
:101F44001237399A3C9B520E42EAC11229924A0E28
:101F5400399942EAC1122A923C9A11023B9A41EA07
:101F64001261120242EA13623D9B4FEA883E4EEA36
:101F7400934E4FEA833C1C9B60EA030A1D9B4CEA88
:101F8400984C69EA0308109B8AEA03032B93119B7C
:101F940088EA03032C931C9B00EA0E0A8AEA0303D3
:101FA4002D931D9B09EA0C0888EA03032E93059BD5
:101FB40043EA0E0A069B43EA0C088AEA00032F93BD
:101FC40088EA090310983093059B03EA0008069BEE
:101FD4001198184088EA0E03319380EA0C03329377
:101FE400089B289843EA070A099B43EA00098AEAFE
:101FF4000503339389EA060314983493089B03EA90
:10200400000C099B159818408CEA07033593289B0C
:1020140043403693149B63EA0B0C159B63EA04005C
:10202400089B8CEA03030893099B43400993149B80
:102034004BEA050C8CEA03031493159B44EA06004F
:1020440043401593289B3D401E4085EA0B0328938B
:1020540086EA0403229D38931A9B239E2B431B9DDF
:1020640045EA060B0E9D6B4039930F9B8BEA0303E5
:102074003A93229B03EA020533461A9E75403B9528
:102084001B9D0B406B403C930C9BD44323EA020200
:102094000D9BC84323EA0101229B53402293239BB7
:1020A4000E9A4B4023930C9B0F991A430D9B0B43A1
:1020B400434062403E930E9B3D920C9A139C03EA6C
:1020C400060A8AEA02020B460C920D9A12992B40D8
:1020D40053400D931E9BDA431F9BD843049B194026
:1020E400079B2340269C61400E9127994B400F93F8
:1020F400129B1E991F9C1943139B2343049C61400C
:102104001A9107991F9C4B401B931E99249B63EAC9
:102114000103259961EA0401129C63401293139B05
:10212400279C4B4013932699249B1940259B2340BD
:102134004A4043401E921F93269A049B1A43079BCE
:1021440043EA0409249B53400793259B89EA03032C
:102154002493209BDE43219BDD43299B209A2A99CB
:1021640023EA020C2A9B219A23EA0207189B299A44
:102174008CEA03032593199B7B4026930A9B1A43FD
:102184000B9B0B4372406B4027923F93169A0A9B1A
:1021940003EA02040B9B179A03EA0200299B189A8C
:1021A4006340299380EA01032A93169B19991343E8
:1021B400179A0A430A994B400A930B9B219953405F
:1021C4000B93209A189B1340199A02EA0108169A55
:1021D40005991C981D9C53401693179B019A88EAF5
:1021E40003031793019BD2699B694B4006994A40AC
:1021F40010990843119943402143069381EA02034D
:102204001093359A2B9B83EA02042C9B369A83EA1B
:1022140002003B9B169A5C403C9B58401A9B5C40D6
:102224001B9B5840279B83EA04013F9B4340049334
:10223400289B17985A40389B434031984240329823
:102244000F9C43400C9842400D98434007984240ED
:10225400249843400593049B22984FEA410C5F0065
:102264004CEAD37C059B47EAD1775F40089B83EA1D
:10227400000B099B239883EA000A2D9B0E988BEA96
:10228400030B2E9B8AEA030A129B8BEA030B139B14
:102294008AEA030A299B8BEA030B2A9B8AEA030A2C
:1022A400339B4340349880EA04093998149C434092
:1022B4003A9889EA000925984340269889EA000952
:1022C40006984340109889EA00092F9880EA040888
:1022D400159C309880EA040E1E9888EA00081F981E
:1022E4008EEA000E3D9888EA00083E988EEA000EB9
:1022F4000A9880EA08080B984FEA480480EA0E0E10
:1023040044EADE744C404FEA4E00049940EAD87027
:10231400414004910599059849008CEA020C41EA70
:10232400D27152004FEA4A054FEA4B0642EAD07294
:1023340082EA0B0245EADB7546EADA764FEA490B94
:102344005E404BEAD37B5B0043EAD97383EA080817
:10235400069B3A9883EA0C030593109B8BEA0E0EB6
:102364007B4080EA070B0E980693339B80EA0C00AF
:1023740083EA0C030E900F981093349B784085EAFF
:1023840009050F9083EA07092598399B83EA0C0312
:1023940080EA0C0C2698119347402B9881EA0A0195
:1023A40080EA060A2C986840189035987040199075
:1023B400369868401C903B98049B70401D903C9854
:1023C400684020901A9870401A901B9868401B909F
:1023D400279846403F9845402D98604021902E987C
:1023E40058402590089860402690099858402790B6
:1023F400229860402290239858402390129860407D
:102404002B90139858402C90299844402A98434084
:1024140018462F9B53402993309B4B402A93149B7F
:1024240053402D93159B4B402E933D9B53402F932C
:102434003E9B4B4030931E9B534033931F9B4B401A
:1024440034930A9B534035930B9B5940319B83EA49
:1024540008033193329B83EA0E033293289B83EA69
:1024640008033693389B83EA0E0338930C9B83EA64
:10247400080339930D9B83EA0E033A93079B83EA7F
:1024840008033B93249B83EA0E033C93169B83EA45
:102494000808179B83EA0E033D93109B1A0F42EA28
:1024A40009130493109B4FEA197949EA031307931C
:1024B400119B4FEACB0242EA53730993119B0F9A83
:1024C400DB0043EA5B7308930E9BDB0D43EA422374
:1024D4000A93D30D0E9A43EA42230B93BB0443EAB7
:1024E4009C334FEA8C4C0D934CEA97330C93189B16
:1024F4001C9A5B0043EADA730F93189B4FEA4A0A6B
:102504004AEAD3730E93199B1B0D43EA02331093CB
:10251400130D199A43EA02331193209B1D9A9B02CF
:1025240043EA925313939302209A43EA92531293E9
:102534001A9B1B9ADB0C43EA42331493D30C1A9A6A
:102544004FEA850E43EA423315934EEA9673B6007A
:10255400179346EA95731693219B259A9B0843EAA1
:10256400827318939308219A43EA82731993279BE1
:10257400269A9B0143EA92631B939301279A43EAA9
:1025840092631A93229B239A5B0D43EAC2231C9302
:10259400530D229A43EAC2231D932C9B2B9ADB03EF
:1025A40043EA52431F93D3032C9A43EA52431E93A4
:1025B4002A9B2A9A4FEA037C299B4FEAD40B4CEAC4
:1025C400131C1B074BEA407B43EA1213C0082D9AE5
:1025D400209340EA44742E98520A42EAC05221924F
:1025E4002D9A3C9F400A40EAC2522292309A2F9878
:1025F400520642EAD01224924206309842EAD0129D
:102604002392349A4FEA4259339A49EAD22950051F
:10261400349A40EAD220359A120A42EA016225929B
:102624000A0A359942EA01622692329A3A994FEAA5
:10263400C26A319A4AEA52122892319A4FEAC26E19
:10264400329A4EEA52122792389A1505369A45EA7A
:1026540012351605389A46EA1236399A520E42EA6B
:10266400C11229924A0E399942EAC1122A923C9A1D
:1026740011023B9A41EA1261120242EA17623D9F3B
:102684003D9B4FEA883E4EEA934E1C9B60EA030A48
:102694001D9BBF0347EA984769EA0308109B8AEA2F
:1026A40003032B93119B88EA03032C931C9B00EADE
:1026B4000E0A8AEA03032D931D9B09EA070888EA98
:1026C40003032E93059B43EA0E0A069B43EA07087D
:1026D4008AEA00032F9388EA090310983093059B34
:1026E40003EA0008069B1198184088EA0E03319308
:1026F40080EA07033293089B149843EA060A099B6D
:1027040043EA0509209B8AEA0303339389EA0C030D
:102714003493089B03EA0007099B1598184087EA3D
:102724000603359380EA05033693149B63EA0B078B
:10273400159B63EA0400089B7B400893099B434074
:102744000993209B4BEA0307149B7B401493159B2E
:1027540044EA0C0043401593209B33400CEA050CDB
:1027640083EA0B0320938CEA0403239D38931A9B7A
:10277400249E2B431B9D45EA060B0E9D6B4039930B
:102784000F9B8BEA03033A93239B03EA0205334628
:102794001A9E75403B951B9D0B406B403C930C9BD4
:1027A400D44323EA02020D9BC84323EA0101239B7D
:1027B40053402393249B4B4024930C9B0E9A0F99D4
:1027C4001A430D9B0B43434062403E930E9B3D9244
:1027D4000C9A139C03EA060A8AEA02020B460C923C
:1027E4000D9A12992B4053400D931E9BDA431F9B65
:1027F400D843049B1940079B2340279C61400E91BA
:1028040028991F9C4B400F931E99129B1943139BAD
:102814002343049C61401A9107994B401B931E99D2
:10282400259B63EA010326991F9C61EA0401129C1B
:1028340063401293139B289C4B4013932799259B29
:102844001940269B23404A4043401E921F93279AD7
:10285400049B2A991A43079B43EA0409259B534086
:102864000793269B219A89EA03032593219BDE4340
:10287400229BDD43299B23EA020C2A9B229A23EA0A
:102884000207189B299A8CEA03032693199B7B4021
:1028940027930A9B1A430B9B0B4372406B4028926D
:1028A400169A3F930A9B03EA02040B9B179A03EAC6
:1028B4000200299B189A6340299380EA01032A9312
:1028C400169B19991C981343179A0A430A994B406B
:1028D4000A930B9B229953400B93219A189B134004
:1028E400199A02EA0108169A059953401693179B00
:1028F400019A88EA03031793019B526A1B6A4B40AF
:1029040006994A401099084311991D9C434021435C
:10291400069381EA020310933B9A359B83EA0204EF
:10292400369B3C9A83EA02001A9B209A5C401B9BCC
:102934005840289B5C403F9B58402B9B84EA0301F2
:102944002C9B43400493319B38985A40329B43401C
:102954000C9842400D9843400798424025984340C4
:1029640016984240179843400593049B29984FEAD0
:10297400410C5F004CEAD37C059B47EAD1775F406A
:102984002D9B83EA000B2A982E9B83EA000A089B5E
:1029940039983A9C8BEA030B099B8AEA030A239B26
:1029A4008BEA030B249B8AEA030A129B8BEA030B30
:1029B400139B8AEA030A339B4340349880EA040950
:1029C4000E98149C43400F9889EA000906984340E6
:1029D400109889EA000926984340279889EA000953
:1029E4002F9880EA04083098159C80EA040E3D98DC
:1029F40088EA00083E988EEA000E1E9888EA0008CD
:102A04001F988EEA000E0A9888EA00080B984FEA8D
:102A140048048EEA000E44EADE744C404FEA4E004D
:102A2400049940EAD87041400491059905984900F9
:102A34008CEA020C41EAD27152004FEA4A054FEA8D
:102A44004B0642EAD07282EA0B0245EADB7546EA9B
:102A5400DA764FEA490B5E404BEAD37B5B0043EAEC
:102A6400D97383EA0808069B83EA0C030593109B39
:102A74003A988BEA0E0E7B4080EA070B0E98069379
:102A8400339B80EA0C0083EA0C030E900F9810939A
:102A9400349B784085EA09050F9083EA0709269854
:102AA400399B83EA0C0380EA0C0C27981193474066
:102AB4002B9881EA0A0180EA060A2C98684018904B
:102AC400359870401990369868401C903B98704037
:102AD4001D903C98684021901A9870401A901B9859
:102AE40068401B90289846403F9845402D98604088
:102AF4002290049B2E985840269008986040279076
:102B0400099858402890239860402390249858406E
:102B14002490129860402B90139858402C90299838
:102B240044402A98434018462F9B53402993309B96
:102B34004B402A93149B53402D93159B4B402E934B
:102B44003D9B53402F933E9B4B4030931E9B5340E1
:102B540033931F9B4B4034930A9B534035930B9BF9
:102B64005940319B83EA08033193329B83EA0E0375
:102B74003293209B83EA08033693389B83EA0E033F
:102B840038930C9B83EA080339930D9B83EA0E0365
:102B94003A93079B83EA08033B93259B83EA0E033E
:102BA4003C93169B83EA0808179B83EA0E033D9324
:102BB400109B1A0F42EA09130493109B4FEA1979E8
:102BC40049EA03130793119B4FEACB0242EA53737A
:102BD4000993119B0F9ADB0043EA5B7308930E9BE6
:102BE400DB0D43EA42230A93D30D0E9A43EA4223B0
:102BF4000B93BB0443EA9C334FEA8C4C0D934CEA91
:102C040097330C93189B1C9A5B0043EADA730F9377
:102C1400189B4FEA4A0A4AEAD3730E93199B1B0D79
:102C240043EA02331093130D199A43EA02331193C2
:102C3400219B1D9A9B0243EA925313939302219A78
:102C440043EA925312931A9B1B9ADB0C43EA4233D6
:102C54001493D30C1A9A4FEA850E43EA4233159320
:102C64004EEA9673B600179346EA95731693229B21
:102C7400269A9B0843EA827318939308229A43EA9C
:102C840082731993289B279A9B0143EA92631B93AF
:102C94009301289A43EA92631A93239B249A5B0D27
:102CA40043EAC2231C93530D239A43EAC2231D9380
:102CB4002C9B2B9ADB0343EA52431F93D3032C9A96
:102CC40043EA52431E932A9B2E9A1F07299B47EAE5
:102CD40013171D072A9B45EA13152D9B5B0A43EA2C
:102CE400C2534FEAD40B4BEA407B2093C0082D9B80
:102CF40040EA4474500A40EAC3532193309B2F9A0C
:102D04005B0643EAD21323935306309A43EAD21361
:102D14002293349B4FEA4359339B49EAD3295805FC
:102D2400349B40EAD320359B1A0A42EA0163249378
:102D3400359B0A0A42EA03632593329B369A3A99F1
:102D44003C9E4FEAC36A319B4AEA53132793319B53
:102D54004FEAC36E329B4EEA53132693389B1B05EE
:102D640043EA12334FEA025C389A28934CEA123C45
:102D7400399A3D9B520E42EAC11229924A0E399960
:102D840042EAC1122A923C9A11023B9A4FEA883EC7
:102D94004EEA934E41EA12611C9B120242EA166209
:102DA4003D9E60EA030A1D9BB60346EA984669EA1B
:102DB4000308109B8AEA03032B93119B88EA0303FD
:102DC4002C931C9B00EA0E0A8AEA03032D931D9B95
:102DD40009EA060888EA03032E93059B43EA0E0AD0
:102DE400069B43EA06088AEA00032F9388EA09034C
:102DF40010983093059B03EA0008069B119818402D
:102E040088EA0E03319380EA06033293089B2898DC
:102E140043EA0C0A099B43EA00098AEA050333934F
:102E240089EA070314983493089B03EA0006099B74
:102E34001598184086EA0C033593289B4340369333
:102E4400149B63EA0B06159B63EA0400089B73401A
:102E54000893099B43400993149B4BEA050673406E
:102E64001493159B44EA070043401593289B05EAF5
:102E74000C051F4085EA0B03289387EA0403389363
:102E84001A9B229D239E2B431B9D45EA060B0E9DF8
:102E94006B4039930F9B8BEA03033A93229B03EA1B
:102EA400020533461A9E75403B951B9D0B406B40B3
:102EB4003C930C9BD44323EA02020D9BC84323EAB0
:102EC4000101229B53402293239B0E9A4B40239350
:102ED4000C9B0F991A430D9B0B43434062403E9356
:102EE4000E9B3D920C9A03EA060A8AEA02020B46FA
:102EF4000C920D9A2B4053400D931E9BDA431F9B5B
:102F0400D843049B1299139C1940079B2340269C89
:102F140061400E9127991F9C4B400F931E99129B61
:102F24001943139B2343049C61401A9107991F9CE6
:102F34004B401B931E99249B63EA0103259961EA84
:102F44000401129C63401293139B279C4B401393E0
:102F54002699249B1940259B23404A4043401E92B6
:102F64001F93269A049B1A43079B2A9943EA040950
:102F7400249B53400793259B209A89EA03032493B7
:102F8400209BDE43219BDD43299B23EA020C2A9BE1
:102F9400219A23EA0207189B299A8CEA03032593B2
:102FA400199B7B4026930A9B1A430B9B0B4372404D
:102FB4006B4027923F93169A0A9B03EA02040B9BE9
:102FC400179A03EA0200299B189A6340299380EA1E
:102FD40001032A93169B19991343179A0A430A99D2
:102FE4001C981D9C4B400A930B9B219953400B93B7
:102FF400209A189B1340199A02EA0108169A059917
:1030040053401693179B019A88EA03031793019B75
:10301400D26A9B6A4B4006994A4010990843119919
:1030240043402143069381EA02031093359A2B9B74
:1030340083EA02042C9B369A83EA02003B9B5C40A1
:103044003C9B58401A9B5C401B9B5840279B169AFC
:1030540083EA04013F9B0F9C43400493289B1798E9
:103064005A40389B434031984240329843400C9830
:1030740042400D98434007984240249843400593AA
:10308400049B22984FEA410C5F004CEAD37C059BD9
:1030940047EAD1775F40089B83EA000B099B23989A
:1030A40083EA000A2D9B0E988BEA030B2E9B8AEA77
:1030B400030A129B8BEA030B139B8AEA030A299BDC
:1030C4008BEA030B2A9B8AEA030A339B4340349816
:1030D40080EA0409399843403A9889EA0009259816
:1030E400149C4340269889EA0009069843401098A6
:1030F40089EA00092F9880EA04083098159C80EA30
:10310400040E1E9888EA00081F988EEA000E3D9867
:1031140088EA00083E988EEA000E0A9880EA0808B9
:103124000B984FEA480480EA0E0E44EADE744C40E1
:103134004FEA4E00049940EAD87041400491059941
:10314400059849008CEA020C41EAD27152004FEA18
:103154004A054FEA4B0642EAD07282EA0B0245EA7C
:10316400DB7546EADA764FEA490B5E404BEAD37BDD
:103174005B0043EAD97383EA0808069B3A9883EA1A
:103184000C030593109B7B400693339B8BEA0E0E36
:1031940083EA0C0380EA070B0E981093349B80EAB1
:1031A4000C0085EA09050E9083EA07090F98399BFC
:1031B400784083EA0C0311930F902598049B80EACE
:1031C4000C0C269847402B9881EA0A0180EA060AEB
:1031D4002C9868401890359870401990369868403B
:1031E4001C903B9870401D903C98684020901A9821
:1031F40070401A901B9868401B90279846403F984F
:1032040045402D98604021902E985840259008986C
:103214006040269009985840279022986040229058
:10322400239858402390129860402B90139858404C
:103234002C90299844402A98434018462F9B534089
:103244002993309B4B402A93149B53402D93159BF9
:103254004B402E933D9B53402F933E9B4B403093CA
:103264001E9B534033931F9B4B4034930A9B534004
:1032740035930B9B5940319B83EA08033193329B6E
:1032840083EA0E033293289B83EA08033693389B20
:1032940083EA0E0338930C9B83EA080339930D9B4E
:1032A40083EA0E033A93079B83EA08033B93249B28
:1032B40083EA0E033C93169B83EA0808179B83EA70
:1032C4000E033D93109B1A0F42EA09130493109BBB
:1032D4004FEA197949EA03130793119B4FEACB028A
:1032E40042EA53730993119B0F9ADB0043EA5B7321
:1032F40008930E9BDB0D43EA42230A93D30D0E9AE7
:1033040043EA42230B93BB0443EA9C334FEA8C4CBD
:103314000D934CEA97330C93189B1C9A5B0043EA79
:10332400DA730F93189B4FEA4A0A4AEAD3730E934F
:10333400199B1B0D43EA02331093130D199A43EAA8
:1033440002331193209B1D9A9B0243EA92531393D9
:103354009302209A43EA925312931A9B1B9ADB0C12
:1033640043EA42331493D30C1A9A4FEA850E43EA84
:10337400423315934EEA9673B600179346EA957353
:103384001693219B259A9B0843EA8273189393080A
:10339400219A43EA82731993279B269A9B0143EA55
:1033A40092631B939301279A43EA92631A93229B95
:1033B400239A5B0D43EAC2231C93530D229A43EADA
:1033C400C2231D932C9B2B9ADB0343EA52431F9386
:1033D400D3032C9A43EA52431E932A9B2A9A1E072C
:1033E400299B4FEAD40B46EA13161B074BEA407B92
:1033F40043EA1213C0082D9A209340EA44742E988D
:10340400520A42EAC05221922D9A400A40EAC2521C
:103414002292309A2F98520642EAD01224924206FF
:10342400309842EAD0122392349A4FEA4259339A9E
:1034340049EAD2295005349A40EAD220359A120A30
:1034440042EA016225920A0A359942EA0162269209
:10345400329A4FEAC26A319A4AEA52122892319A4F
:103464004FEAC26E329A4EEA52122792389A1505E2
:10347400369A45EA12351705389A47EA1237399AC7
:103484003A993C9B520E42EAC11229924A0E39994A
:1034940042EAC1122A923C9A11023B9A41EA126111
:1034A400120242EA13623D9B4FEA883E4EEA934E73
:1034B4004FEA833C1C9B60EA030A1D9B4CEA984C30
:1034C40069EA0308109B8AEA03032B93119B88EA99
:1034D40003032C931C9B00EA0E0A8AEA03032D9330
:1034E4001D9B09EA0C0888EA03032E93059B43EA13
:1034F4000E0A069B43EA0C088AEA00032F9388EA23
:10350400090310983093059B03EA0008069B119861
:10351400184088EA0E03319380EA0C033293089B27
:1035240043EA070A099B43EA0509209B8AEA030345
:10353400339389EA060314983493089B03EA000C36
:10354400099B159818408CEA0703359380EA050314
:103554003693149B63EA0B0C159B63EA0400089BE7
:103564008CEA03030893099B43400993209B4BEA8D
:10357400030C149B8CEA03031493159B44EA060082
:1035840043401593209B3B402E4083EA0B0320933A
:1035940086EA0403239D38931A9B249E2B431B9D88
:1035A40045EA060B0E9D6B4039930F9B8BEA030390
:1035B4003A93239B03EA020533461A9E75403B95D2
:1035C4001B9D0B406B403C930C9BD44323EA0202AB
:1035D4000D9BC84323EA0101239B53402393249B5F
:1035E4000E9A4B4024930C9B0F991A430D9B0B434B
:1035F400434062403E930E9B3D920C9A139C03EA17
:10360400060A8AEA02020B460C920D9A12992B4082
:1036140053400D931E9BDA431F9BD843049B1940D0
:10362400079B2340279C61400E9128994B400F93A0
:103634001E99129B1943139B1F9C2343049C6140B6
:103644001A9107991F9C4B401B931E99259B63EA73
:103654000103269961EA0401129C63401293139BAF
:10366400289C4B4013932799259B1940269B234064
:103674004A4043401E921F93279A049B1A43079B78
:1036840043EA0409259B53400793269B219A89EA20
:1036940003032593219BDE43229BDD43299B23EADD
:1036A400020C229A2A9B23EA0207189B299A2A9938
:1036B4008CEA03032693199B7B4027930A9B1A43A6
:1036C4000B9B0B4372406B403F924093169A0A9BAC
:1036D40003EA02040B9B179A03EA0200299B189A37
:1036E4006340299380EA01032A93169B1999134393
:1036F400179A0A430A994B400A930B9B2299534009
:103704000B93219A189B1340199A02EA0108169AFE
:1037140053401693179B88EA03031793019B05995B
:103724001B6B019A1C98526B1D9C4B4006994A4096
:1037340010990843119943402143069381EA0203F7
:1037440010933B9A359B83EA0204369B3C9A83EAA6
:1037540002001A9B209A5C401B9B58403F9B5C4094
:10376400409B58402B9B84EA03012C9B43400493C9
:10377400319B38985A40329B43400C9842400D98F4
:103784004340079842402598434016984240179872
:103794003A9C43400593049B29984FEA410C5F00EF
:1037A4004CEAD37C059B47EAD1775F402D9B83EAA3
:1037B400000B2E9B2A9883EA000A089B39988BEA0F
:1037C400030B099B8AEA030A239B8BEA030B249BC2
:1037D4008AEA030A129B8BEA030B139B8AEA030A05
:1037E400339B4340349880EA04090E98149C434068
:1037F4000F9889EA000906984340109889EA00095D
:1038040026984340279889EA00092F9880EA0408FB
:103814003098159C80EA040E3D9888EA00083E988A
:103824008EEA000E1E9888EA00081F988EEA000EA1
:103834000A9888EA00080B984FEA48048EEA000EBA
:1038440044EADE744C404FEA4E00049940EAD870D2
:10385400414004910599059849008CEA020C41EA1B
:10386400D27152004FEA4A054FEA4B0642EAD0723F
:1038740082EA0B0245EADB7546EADA764FEA490B3F
:103884005E404BEAD37B5B0043EAD97383EA0808C2
:10389400069B3A9883EA0C030593109B8BEA0E0E61
:1038A4007B4080EA070B0E982893339B80EA0C0038
:1038B40083EA0C030E900F980693349B784085EAB4
:1038C40009050F9083EA07092698399B83EA0C03BC
:1038D40080EA0C0C2798109347402B9881EA0A0140
:1038E40080EA060A2C986840119035987040189028
:1038F4003698684019903B9870401C903C986840FA
:103904001D901A98049B704021901B986840229047
:103914003F984640409845402D98604026902E9808
:1039240058402790089860402B90099858402C9054
:103934002398604023902498584024901298604023
:103944002D90139858402E90299844402A9843402B
:1039540018462F9B53402F93309B4B403093149B1E
:1039640053401493159B4B4015933D9B5340339305
:103974003E9B4B4034931E9B53401E931F9B4B40D6
:103984001F930A9B534040930B9B5940319B83EAFE
:1039940008034193329B83EA0E034293209B83EAFC
:1039A40008034393389B83EA0E0344930C9B83EAF6
:1039B400080345930D9B83EA0E034693079B83EA12
:1039C40008030793259B83EA0E032593169B83EA3A
:1039D4000808179B83EA0E031693069B1A0F42EA04
:1039E40009130493069B4FEA197949EA03132993AF
:1039F400109B4FEACB0242EA53730993109B0F9A30
:103A0400DB0043EA5B7308930E9BDB0D43EA42231E
:103A14003193D30D0E9A43EA42233293BB0443EA13
:103A24009C334FEA8C4C0B934CEA97330A93119BCB
:103A3400199A5B0043EADA730D93119B4FEA4A0A21
:103A44004AEAD3730C93189B1B0D43EA0233389351
:103A5400130D189A43EA023339931D9B1C9A9B0257
:103A640043EA92531B9393021D9A43EA92531A9387
:103A7400219B229ADB0C43EA42331293D30C219A02
:103A84004FEA850E43EA423313934EEA9673B60027
:103A9400369346EA95733593269B279A9B0843EA07
:103AA40082733A939308269A43EA82733B932C9B3E
:103AB4002B9A9B0143EA9263279393012C9A43EA3E
:103AC40092632693239B249A5B0D43EAC2233C937F
:103AD400530D239A43EAC2233D932E9B2D9ADB0375
:103AE40043EA52432B93D3032E9A43EA52432A9335
:103AF400309B159A4FEA037C2F9B4CEA131C1D073D
:103B0400309B45EA1315149B5B0A43EAC2534FEA00
:103B1400D40B4BEA407B3E93C008149B40EA4474A8
:103B2400500A40EAC3533F93349B339A5B0643EAFB
:103B3400D21319935306349A469F43EAD213189327
:103B44001F9B1E9A5B0543EAD22350051F9A40EA45
:103B5400D220409A120A42EA01622C920A0A40993F
:103B640042EA01622D92429A4FEAC269419A49EAB5
:103B740052123392419A4FEAC26E429A4EEA52125C
:103B84002E92449A1105439A41EA12322092439AA2
:103B940025991605449A46EA1236459A520E42EA87
:103BA400C71240927A0E459F42EAC7124192259A63
:103BB4001702079A47EA1267120242EA116216993B
:103BC4004FEA883E4EEA914E4FEA813A3C9960EAC8
:103BD40001093D994AEA984A63EA0108389989EA51
:103BE40001010E91399988EA01010F913C9900EA8B
:103BF4000E0989EA010114913D9903EA0A0888EA49
:103C040001011591059941EA0E09289941EA0A082A
:103C140088EA030389EA00011C911D933899059BE6
:103C240003EA01003999289B0B4083EA0A03239392
:103C3400089B80EA0E0143EA060A2291099B209917
:103C440043EA01098AEA0503069389EA0C031299F7
:103C54000793089B03EA01001399099B0B4080EA30
:103C64000601109120994B4013991193129B61EA1C
:103C74000400089963EA0B034B401693099B1299BD
:103C840043404BEA050041401E911399179344EABF
:103C94000C034B401F93209B35400CEA030185EA3B
:103CA4000B03249381EA04032593189C269B199DF6
:103CB4002343279C44EA050B0C9C634008930D9B0B
:103CC4008BEA03030993189B03EA02042B46269DFF
:103CD4006C401294279C3B40634013930A9B0D9CB9
:103CE400D04323EA02020B9BF94323EA0707189BFC
:103CF40053401893199B0C9A7B4019930A9B1A43BF
:103D04000B9B234342404B40209221930C9B279AC8
:103D14001A9903EA050A234613400A9A1B9C8AEA65
:103D2400020226920B9A534027932A9BDA432B9B39
:103D3400D843049B1940299B23402E9C61400A913F
:103D440033992B9C4B400B932A991A9B19431B9B29
:103D54002343049C61400C9129992B9C4B400D9367
:103D64002A992C9B63EA01032D9961EA04011A9CA8
:103D740063401A931B9B4B401B932C9B2E99339CA3
:103D840019402D9B23404A4043402F9230932E9A52
:103D9400049B41991A43299B43EA04092C9B5340F1
:103DA40033932D9B3E9A89EA030334933E9BDE436F
:103DB4003F9BDD43409B23EA020C419B3F9A23EA4D
:103DC40002073A9B409A8CEA030329933B9B7B406E
:103DD4002A93319B1A43329B0B4372406B402B92C4
:103DE4002C93359A319B03EA0204329B369A03EAF8
:103DF4000200409B3A9A63402D9380EA01032E937C
:103E0400359B3B993C983D9C1343369A0A43319920
:103E14004B403193329B3F99534032933E9A3A9BA5
:103E240013403B9A02EA0108359A53403593369B76
:103E3400019A88EA03033693019BD16B9B6B059A25
:103E44005A40289B5940389B034339985340204398
:103E5400049380EA01030593019B40330193019A83
:103E64004F4B93427CF4A2AB0024FCF7D5BA009BE1
:103E7400049AC3F89820059AC3F89C200E9AC3F8B4
:103E8400A0200F9AC3F8A420149AC3F8A820159A66
:103E9400C3F8AC201C9AC3F8B0201D9AC3F8B42010
:103EA400229AC3F8B820239AC3F8BC20069AC3F810
:103EB400C020079AC3F8C420109AC3F8C820119AE6
:103EC400C3F8CC20169AC3F8D020179AC3F8D4208C
:103ED4001E9AC3F8D8201F9AC3F8DC20249AC3F88A
:103EE400E020259AC3F8E420089AC3F8E820099A48
:103EF400C3F8EC20129AC3F8F020139AC3F8F42004
:103F0400189AC3F8F820199AC3F8FC20209AC3F829
:103F14000021219AC3F80421269AC3F80821279A7C
:103F2400C3F80C210A9AC3F810210B9AC3F8142180
:103F34000C9AC3F818210D9AC3F81C211A9AC3F8D5
:103F440020211B9AC3F824212F9AC3F82821309AE0
:103F5400C3F82C21339AC3F83021349AC3F834219E
:103F6400299AC3F838212A9AC3F83C212B9AC3F81A
:103F740040212C9AC3F844212D9AC3F848212E9A43
:103F8400C3F84C21319AC3F85021329AC3F8542112
:103F9400359AC3F85821369AC3F85C21FCF770B9F6
:103FA400D89E0008F0B5C9B2D0F890601D4641F41F
:103FB4008071C2F10803D940872EA5B00446C9B266
:103FC4005BD1072A53D18DF80010324600210DF140
:103FD400010005F06FFB80238DF888308927882342
:103FE4003A4669462046FCF737F9D4E92823D243F8
:103FF400DB43C4E92823D4E92A23D243DB43C4E9BD
:104004002A23D4E93623D243DB43C4E93623D4E953
:104014003E23D243DB43C4E93E23D4E94823D243BD
:10402400DB43C4E94823D4E94E23DB43D243C4E948
:104034004E236946002323F007022244D2E926676F
:104044000833202BE1E80267F5D16A4608AE13462F
:1040540003CBB342286069601A4605F10805F6D11E
:104064004FF480712046FCF7D5F825B0F0BD61F01F
:104074007F018DF800100127B1E78DF80010C6F11B
:10408400860200210DF1010005F014FB24ABC6F1FA
:1040940088079E1B802306F8093CA0E74FF4807133
:1040A400FCF7B8B88823FCF7D7B800220B461146B2
:1040B400FFF778BF2DE9F047A44FBB681F2B8AB0E8
:1040C40007D8A349384603F02CFD00200AB0BDE808
:1040D400F0870121242003F0DBF9642003F016FAB1
:1040E4000021242003F0D4F99949DFF8809201A833
:1040F40003F0CFFC2C21384603F082FD0022034656
:10410400394607A803F080FD07A901A803F001FDC3
:1041140007A803F079FC0222039B01A907A803F076
:1041240073FD07A901A803F0F4FC07A803F06CFCD5
:10413400039C8848640840220021C9F8004005F027
:10414400B9FA8CB30025DFF80CA2DFF814822E46EE
:10415400294601A803F038FD037803F01F0309334F
:10416400A8FB0324E40804EB8404691C01A804EB01
:1041740084041C1B03F028FD0178D9F8002001F009
:104184001F010931A8FB0103DB0803EB83032401AE
:1041940003EB8303E4B20136CB1A2344B2420AF898
:1041A400013B05F10205D3D82C21684803F028FD12
:1041B400BB686649421C07A803F026FD07A96348AB
:1041C40003F0A7FC07A803F01FFC614904A803F04F
:1041D40060FC2C215D4803F013FD002203465B497B
:1041E40007A803F011FD07A904A803F092FC07A88F
:1041F40003F00AFC069B022204A907A803F004FDAD
:1042040007A904A803F085FC07A803F0FDFB069C9E
:10421400039B9C4213D2504D294607A803F039FC56
:1042240004A907A803F0C4FC014604A803F062FC37
:1042340007A803F0E9FB069C039B9C42ECD3474E82
:10424400202200213046640805F034FAC4F120032A
:104254001F2B78D8C4F11F04414D06EB040906F165
:104264001F084FF0000A514604A803F0ADFC037880
:1042740003F01F030933A5FB0324E40804EB8404BF
:104284000AF1010104A804EB84041C1B03F09CFC48
:10429400027802F01F020932A5FB0213DB0803EBCC
:1042A4008303240103EB8303E4B2D31A234409F800
:1042B400013FC8450AF1020AD5D1727831783379C1
:1042C400120402EB0162B1781806F37902EB0121C2
:1042D400F2781B18707942EB0102B17900041B18C3
:1042E4004FEA012142F100025B1842F100021D492C
:1042F4001648C1E900322C2103F082FCBB68134943
:10430400421C07A803F080FC07A9104803F001FC35
:1043140007A803F079FB0D4803F09CFC002804DD9A
:104324000A4803F097FC104B18600949074803F04A
:10433400F8FB04A803F068FB01A803F065FB012067
:104344000AB0BDE8F08700231A46D0E738020020FF
:10435400D89E000870020020DC9E0008B0020020F5
:104364001F85EB51D00200200000002068020020CD
:1043740008B507484FF4E13103F036FB012124204E
:1043840003F022F8BDE808400021242003F080B89F
:10439400480400200149024803F07BBBD89E000872
:1043A40038020020014803F02FBB00BF3802002070
:1043B4002DE9F04FDFB002F0EEFF7B4803F098FAEE
:1043C40088B1794C794D07E003F098FAC1B20A2913
:1043D40028460BD003F0DFFB204603F089FA03469E
:1043E4002046002BF0D15FB0BDE8F08FFFF762FEEE
:1043F4000028F8D0DFF8E4816D4FD8F80030DFF8FA
:10440400E0B16C4CDFF8DCA11C33C8F800306A4B17
:1044140000221A603A6003F075F8684B1D684FF487
:104424007A7303FB050503F06FF8DBF800300190A5
:1044340098421CBF0346CBF8003003F063F8A8424F
:104444004BD2D8F800103B685D4E01337218180E39
:1044540070543B60190CD3701B0A9370517006A8FA
:10446400FFF71CFED8F800203146043206A8FFF7F7
:1044740019FE504906A8FFF718FE627821782379BF
:10448400120402EB0162A1781806E37902EB012120
:10449400E2781B1842EB0102617909045B18A179E7
:1044A4004FEA012142F10002CB18DAE9000142F19E
:1044B4000002834272EB01032FD303F025F8DBF8EB
:1044C4000030404AC31A9342B7D9CBF8000002F037
:1044D40062FF03F017F8A842B3D3374B1B68002BD5
:1044E40081D103F011F8019B3968C01A324B0A22BA
:1044F4001C4618602C4803F0B8F933492A4803F0E5
:1045040092F9216828480A2203F0AFF92F49264876
:104514005FB0BDE8F04F03F086B902F0F5FF019BF0
:104524003968DFF8C490C01A234B0A221D4618606C
:104534001D4803F09AF924491B4803F074F92968CB
:104544001948194D0A2203F090F91F49164803F03F
:104554006AF91F49144803F066F909F120060AE0D4
:1045640003F0F1FA03A9284603F058F903A803F06D
:104574004BFAB1450FD019F8011F0F294FF0100263
:1045840003A8EDD81349284603F04DF999F8001013
:10459400102203A8E4E71049034803F044F902F0A9
:1045A400B1FF054689E700BF480400203802002017
:1045B40044020020480200206C0200200000002079
:1045C4007002002040420F00E49E0008E89E0008AC
:1045D400E09E0008DC9E0008EC9E000868020020B3
:1045E40034020020D00200204702002010B50A4CFB
:1045F40022681318EFF308818B4206D9074B0C226B
:104604001A604FF0FF32104610BD05490548091ADB
:104614008B42F3D22360F6E704000020B80F002099
:104624000000012000040000FEE70000024B1622F7
:104634001A604FF0FF307047B80F00200120704718
:104644007047000038B50E4A0E4B054618784FF4F3
:104654007A73B3FBF0F31068B0FBF3F000F0BCF82E
:10466400044658B90F2D09D8024629464FF0FF30A9
:1046740000F05EF8044B20461D6038BD0120FCE7C5
:1046840028000020080000200C00002008B50B4B77
:104694001A6842F400721A601A6842F480621A605E
:1046A4001A6842F480721A60032000F02FF8002088
:1046B400FFF7C8FFFFF7C4FF002008BD003C02401D
:1046C400034A044B11681B780B441360704700BF06
:1046D400D802002008000020014B1868704700BF72
:1046E400D802002038B50446FFF7F6FF631C1CBF50
:1046F400054B1B78054618BFE418FFF7EDFF431B75
:10470400A342FAD338BD00BF080000200749CA6895
:1047140022F4E0620302120403F4E063120C134374
:1047240043F0BF6343F40033CB60704700ED00E017
:10473400164B30B5DC68C4F30224C4F10705231D0D
:10474400042D28BF0425062B4FF0FF338CBF033CF8
:10475400002403FA05F521EA0501A34022EA030235
:10476400A140002841EA0203ACBF00F16040084ABE
:104774004FEA0313B8BF00F00F00DBB2AABF00F585
:104784006140135480F8003330BD00BF00ED00E0F9
:1047940014ED00E0002808DB0123420900F01F00AB
:1047A40003FA00F0014B43F82200704700E100E0F7
:1047B40000280DDB4309012200F01F0002FA00F07B
:1047C4002033044A42F82300BFF34F8FBFF36F8FA7
:1047D400704700BF00E100E00138B0F1807F0BD2E8
:1047E4004FF0E023054A5861F02182F8231000209D
:1047F400072298611A6170470120704700ED00E0BC
:10480400002809DB4309012200F01F0002FA00F02E
:104814006033024A42F82300704700BF00E100E021
:10482400704708B5FFF7FCFF08BD70B50446866DF8
:10483400FFF752FF94F83530022B054606D080234B
:104844006365002384F83430012070BD23681A683E
:1048540022F016021A605A6922F080025A61226C10
:104864000AB9A26C1AB11A6822F008021A601A680E
:1048740022F001021A6023681B6813F001030AD1B5
:10488400E16D3F228A40B260012284F8352084F829
:1048940034301846D9E7FFF71FFF401B0528EAD933
:1048A400202363650320002384F8350084F8343022
:1048B400CBE790F83530022B03D0802343650120E9
:1048C40070470268052380F83530136823F001032C
:1048D4001360002070470000044A5169014208B582
:1048E40002D0506102F046FC08BD00BF003C01400C
:1048F400F0B504468BB060B390F8BD33056803F09F
:10490400FF021BB980F8BC2304F0DAF8032384F80F
:10491400BD33EB6B254613F4807355F8100B08BFB9
:10492400236101F06FFB0FCD6E460FC60FCD0FC68E
:1049340095E8030086E803002546271D97E80E0046
:1049440055F8100B01F0A8FA064620B1022384F8AA
:10495400BD3301254EE00146206801F059FB304685
:10496400D4F804C01C264FF0010E0146C2B294458F
:1049740000F101001CD800231C261946D8B2844536
:1049840003F1010322D80FCD6E460FC60FCD0FC61B
:1049940095E8030086E8030097E80E00206801F01C
:1049A4009DFB01230546F0B1022284F8BD23D0E724
:1049B40006FB0243C3E9111183F83DE083F83C2070
:1049C400A3F8422083F83F101965CFE706FB0042A5
:1049D400C2E9811182F8FD1182F8FC0182F8FF110D
:1049E400C2F81012CAE784F83800206884F8BD338E
:1049F40001F0DAFE28460BB0F0BD10B5044600689D
:104A040094F8BC33012B15D0012384F8BC33A36A7A
:104A1400012B06D1A369012B1EBF836B43F48033A2
:104A2400836301F0E9FA206801F0B0FE002084F805
:104A3400BC0310BD0220FCE72DE9F04F066887B0E7
:104A44000446304601F0EDFE0290002840F0248137
:104A5400206801F0B7FE002800F01E81206801F0F4
:104A6400B1FE820748BF2268206842BF536903F041
:104A74000203536101F0A6FEC3062AD52268936996
:104A840023F010039361376AC7F34343022B07F003
:104A94000F0540F0048147F6F0731F4214D01C2325
:104AA40003FB0545C7F30A184246D5F808123046F9
:104AB40001F0E8FDD5F80822D5F814324244434405
:104AC400C5F80822C5F814322268936943F010032C
:104AD4009361206801F076FE070300F1F4802068FA
:104AE40001F070FE45030CD5206801F077FE2546E1
:104AF400039006F510694FF00008039B002B40F06B
:104B04008A81206801F05EFE002815DAD6F80438A0
:104B140023F00103C6F8043894F8F433012B40F071
:104B24000A82002184F8F413204600F08CFB2268EA
:104B3400536903F000435361206801F043FE01050B
:104B44000BD5D6F80838DA0702D5204604F02CF83D
:104B54002268536903F400635361206801F032FE54
:104B6400C30437D5D6F80438206823F00103102194
:104B7400C6F8043801F07CFA06F5006506F5106302
:104B84004FF67F3162680298824200F2D881EB6965
:104B940043F00113EB61236B002B00F0EC81D5F89B
:104BA400843043F00B03C5F884306B6C43F00B0383
:104BB4006B64D6F80038217C206823F4FE63C6F8C1
:104BC400003804F5717201F041FE2268536903F460
:104BD40080535361206801F0F5FD870416D52068E1
:104BE40001F023FE206801F031FBE060256800F04D
:104BF400A5FD227B0146284601F08EF9204603F0EC
:104C0400C6FF2268536903F400535361206801F01E
:104C1400D9FD060707D5204603F0B5FF226853697E
:104C240003F008035361206801F0CCFDC50208D5E8
:104C34000021204603F0EEFF2268536903F4801339
:104C44005361206801F0BEFD800208D50021204692
:104C540003F0DCFF2268536903F4001353612068F6
:104C640001F0B0FD410007D5204603F0D7FF2268CC
:104C7400536903F080435361206801F0A3FD4207A8
:104C84000AD523685D686B0702D5204603F0CAFF86
:104C9400226853682B43536007B0BDE8F08F062B9E
:104CA4007FF412AF082204F57171304601F0EAFC7A
:104CB4001C2303FB0545C7F30A17D5F814321F4418
:104CC400C5F8147200E72068DFF8C4B201F07EFD75
:104CD40006F530670390A2460025039B002B3FF4A2
:104CE400FEAE039BD80756D55FFA85F9206849467E
:104CF40001F07CFD10F0010F80461AD02068216974
:104D040000F5306C01220CEB451CBA600129036CE0
:104D1400DCF8082066D1110706D55B4509D91004D3
:104D240007D54FF4004302E091063CD52023CCF88C
:104D3400083018F0080F1ED023680822BA601A6CD5
:104D440003F5306303EB45135A45996804D9090404
:104D540044BF4FF4004199602046049203F0FCFEE6
:104D6400049A5A4507D92169012904D1206804F518
:104D7400717201F06BFD18F0100F1CBF1023BB60A3
:104D840018F0200F1CBF2023BB6018F4005F1CBF69
:104D94004FF40053BB60039B5B080135039320373A
:104DA4000AF11C0A99E712F0280FC2D15B4501D918
:104DB4001204B6D4DCF81020DAF80412C2F312029A
:104DC4008A1ACAF81422DAF808220A44CAF808220D
:104DD40095B9D4F810227AB904F57172012101F061
:104DE40035FD09E069498B420BD1130499D490062F
:104DF40002D52022CCF808204946204603F0B2FE12
:104E040097E7002DF8D1D4F81022002AF4D104F544
:104E140071722946E3E7039BDA0740F183805FFA66
:104E240088FB2068594601F0EAFCC307074621D5F0
:104E3400D6F834382169012008F00F0200FA02F292
:104E440023EA02038142C6F83438C9F808000DD1B8
:104E5400D5E911231344AB64B8F1000F06D1236DD7
:104E640023B9206804F5717201F0F0FC594620461C
:104E740003F081FE380744BF0823C9F80830F90657
:104E840044BF1023C9F808307A0644BF4023C9F848
:104E94000830BB0744BF0223C9F80830380641D59F
:104EA400D5E914329A423DD89B1A6A6CD4F800A012
:104EB400934228BF134603339B0804930AF51063F7
:104EC40003EB48130593059B04999A6992B28A42AD
:104ED400D5E9147324D3BB420BD3DAF8343808F081
:104EE4000F02012101FA02F223EA0203CAF834385C
:104EF40018E0FF1A6B6C9F4228BF1F46FB1C9B08DF
:104F04000493237C0093A96CBBB25A46504601F02B
:104F1400B7FAAB6C3B44AB646B6D3B446B65D2E757
:104F2400BB42DAD2039B5B0808F1010803931C35EA
:104F340009F12009E1E5204603F04EFEF7E599600A
:104F44001A6822F400121A601A6842F000621A60A9
:104F5400C3F80812D3F8002222F40012C3F8002286
:104F6400D3F8002242F00062C3F80022029A013210
:104F74000292203306E66B6943F4005343F02B039B
:104F84006B612B6943F00B032B6112E60A31544F1A
:104F94000A30544F10B590F8BC23012A04460BD0B4
:104FA400012280F8BC2380F83810006801F0DEFB91
:104FB400002084F8BC0310BD0220FCE770B501F0AA
:104FC4000F06C6EBC60411F0800F05464FEA8404B1
:104FD4004FF01C001FD000FB065004F13C010124DB
:104FE400294480F83D408A604A780E70CB7002B143
:104FF400CE80022B04BF00230B7195F8BC33012B28
:1050040012D00123286885F8BC3301F02AF9002066
:1050140085F8BC0370BD00FB065004F5FE71002446
:10502400294480F8FD41DEE70220F3E710B5044689
:1050340001F00F00C0EBC00311F0800F4FEA8303AF
:105044004FF01C0216D002FB004203F13C01012385
:10505400214482F83D30087094F8BC33012B12D0FF
:105064000123206884F8BC3301F03AF9002084F865
:10507400BC0310BD02FB004203F5FE710023214472
:1050840082F8FD31E7E70220F3E738B501F00F05B8
:105094001C2404FB050104FB050401F5FE71C4F89E
:1050A40010320023C4F80822C4F8143284F8FD3105
:1050B40084F8FC5103690068012B08BFC4F80C2272
:1050C400DAB21DB901F062F9002038BD01F0ECF943
:1050D400FAE701F00F011C2303FB0100D0F81402CE
:1050E400704738B501F00F051C2404FB050104FBCF
:1050F40005043C312365002363650123A26484F81D
:105104003D3084F83C5003690068012B08BFE26419
:10511400DAB21DB901F03AF9002038BD01F0C4F942
:10512400FAE738B5436801F00F059D4204462CD8D0
:1051340011F0800F4FF01C001ED000FB054200FB55
:10514400054101233C3182F83D3001238B700D7001
:1051540094F8BC239A421AD0206884F8BC3301F036
:10516400B1FA2DB9217C206804F5717201F06EFB4F
:10517400002084F8BC0338BD00FB01431A4603F544
:10518400FE71002382F8FD31DFE70120F3E70220FE
:10519400F1E738B5436801F00F029A4204462AD871
:1051A400C2EBC20311F0800F4FEA83034FF01C00DF
:1051B40018D000FB024003F13C010123214480F894
:1051C4003D3000258D700A7094F8BC33012B14D047
:1051D4000123206884F8BC3301F09FFA84F8BC539F
:1051E400284638BD00FB024003F5FE71002321442C
:1051F40080F8FD31E5E70120F3E70220F1E70068DC
:1052040070B51204446A19B922438262002070BD49
:10521400836A4D1E04EB134400235E1CDBB29D42E3
:1052240005D83F3100EB810022434260EEE7403372
:1052340000EB83035B6804EB13443346EDE7036838
:1052440000205962704770472DE9F341044640B38A
:105254000368DD0710D4236898075ED423681A070F
:1052640000F1A08023685B0700F1C080A0690028DA
:1052740040F0288100202BE08F4B9A6802F00C024A
:10528400042A07D09A6802F00C02082A0BD15A6843
:10529400510208D5884B1B689A03DCD56368002B40
:1052A400D9D1012014E06268B2F5803F13D11A68A5
:1052B40042F480321A60FFF70FFA7F4E05463368D6
:1052C4009B03C8D4FFF708FA401B6428F7D90320CE
:1052D40002B0BDE8F081784DB2F5A02F2B6807D15C
:1052E40043F480232B602B6843F480332B60E2E784
:1052F40023F480332B602B6823F480232B60002A53
:10530400D9D1FFF7E9F906462B689F03A3D5FFF728
:10531400E3F9801B6428F7D9D9E7674B9A6812F040
:105324000C0F07D09A6802F00C02082A11D15B68AE
:105334005E020ED4604A13689D0702D5E368012B10
:10534400AFD11368216923F0F80343EAC103136062
:1053540084E7E268594BB2B101221A60FFF7BCF945
:10536400554D06462B68980707D52B68226923F00C
:10537400F80343EAC2032B6070E7FFF7ADF9801B23
:105384000228EFD9A3E71A60FFF7A6F94A4E0546AB
:10539400336899077FF562AFFFF79EF9401B022837
:1053A400F6D994E76269454B82B10122C3F8802E95
:1053B400FFF792F9404E0546736F9F073FF552AFD2
:1053C400FFF78AF9401B0228F6D980E7C3F8802E3C
:1053D400FFF782F9384E0546736F98077FF542AFA1
:1053E400FFF77AF9401B0228F6D970E7324B1A6CA2
:1053F40012F0805228D101921A6C42F080521A6441
:105404001B6C03F080530193019B01272C4D2B68E7
:10541400D9051BD5A368284D012B27D12B6F43F049
:1054240001032B67FFF758F9234E054641F28838EC
:10543400336F9B0739D5002F3FF418AF1E4A136C06
:1054440023F08053136411E70027DFE72B6843F44C
:1054540080732B60FFF740F906462B68DA05D9D430
:10546400FFF73AF9801B0228F7D930E7052B04D15E
:105474002B6F43F004032B67D0E72A6F22F001025D
:105484002A672A6F22F004022A67002BCAD1FFF789
:1054940023F941F2883806462B6F9807CBD5FFF7DE
:1054A4001BF9801B4045F7D911E7FFF715F9401B9D
:1054B4004045BDD90BE700BF003802400000474219
:1054C40000700040364DAB6803F00C03082B3DD050
:1054D400344B002202281A662BD1FFF7FDF806464A
:1054E4002B6899011FD4D4E907321343626A43EA53
:1054F4008213E26A43EA0263A26A5208013A43EA67
:1055040002436B60274B264D01221A66FFF7E4F82D
:1055140004462B689A013FF5ADAEFFF7DDF8001B9A
:105524000228F6D9D3E6FFF7D7F8801B0228D7D98B
:10553400CDE6FFF7D1F804462B689B017FF59AAEC0
:10554400FFF7CAF8001B0228F6D9C0E601283FF489
:10555400BFAE6B68E26903F4800191427FF4A1AEAF
:10556400216A03F03F028A427FF49BAE616A47F6E8
:10557400C0721A40B2EB811F7FF493AEA26A520844
:1055840003F44031013AB1EB024F7FF48AAEE26A90
:1055940003F07063B3EB026F3FF46CAE81E600BFBF
:1055A4000038024000004742134908B58B6803F0F5
:1055B4000C03042B1CD0082B1CD14A684B68496887
:1055C40013F4800314BF0D480D48C1F3881118BFAC
:1055D400002302F03F02A1FB0001FAF7E1FD064BB4
:1055E4005B68C3F3014301335B00B0FBF3F008BD18
:1055F4000248FCE70248FAE70038024000127A0049
:105604000024F4002DE9F0410D46044610B90120B0
:10561400BDE8F081444B1A6802F007028A4228D39D
:10562400226897072DD4D00741D43F4B1A6802F063
:105634000702AA4266D8226851076CD4130707D51B
:105644003A4A2169936823F4604343EAC1039360AF
:10565400FFF7AAFF354B364A9B68C3F30313D35CA9
:10566400D840344B1860344B1868FEF7EBFF002029
:10567400CEE7CAB21A701B6803F007038B42C6D187
:10568400CEE72A4B12F0040F1EBF996841F4E05193
:105694009960160742BF996841F4604199602349B3
:1056A400A0688B6823F0F00303438B60BBE7626858
:1056B4001E4B012A1CD11B6813F4003FA7D01B4EBC
:1056C400B36823F003031343B360FFF705F841F213
:1056D40088380746B368626803F00C03B3EB820FA3
:1056E400A3D0FEF7F9FFC01B4045F3D903208FE791
:1056F400911E01291B6802D813F0007FDEE713F026
:10570400020FDBE7EAB21A701B6803F00703AB422F
:105714007FF47DAF8FE70549E0688B6823F4E0539D
:1057240003438B608AE700BF003C0240003802401C
:10573400A09F0008280000200C000020014B1868DE
:10574400704700BF280000207047704703681A693B
:10575400910710B504460ED5DA6892070BD56FF0A1
:1057640002021A61012202779B699B0777D002F03B
:1057740041F80023237723681A69500710D5DA68A3
:1057840051070DD56FF004021A61022222779B693A
:1057940013F4407F204668D002F02CF800232377CE
:1057A40023681A6912070FD5DA6810070CD56FF051
:1057B40008021A6104222277DB69990720465AD02D
:1057C40002F018F80023237723681A69D20610D54B
:1057D400DA68D0060DD56FF010021A61082222771C
:1057E400DB6913F4407F20464BD002F003F800231A
:1057F400237723681A69D10708D5DA68D20705D553
:105804006FF001021A61204601F0C8FF23681A698B
:10581400100608D5DA68110605D56FF080021A6102
:10582400204600F0B0F823681A69520608D5DA68F1
:10583400500605D56FF040021A612046FFF785FF38
:1058440023681A69910622D5DA6892061FD56FF08B
:10585400200220461A61BDE8104000F093B801F020
:10586400C7FF2046FFF770FF83E701F0C1FF204622
:10587400FFF76AFF92E701F0BBFF2046FFF764FFE2
:10588400A0E701F0B5FF2046FFF75EFFAFE710BDCC
:10589400244A036890420ED0B0F1804F0BD0A2F599
:1058A4007C42904207D002F58062904203D002F518
:1058B4008062904215D14A6823F070031343194A59
:1058C400904219D0B0F1804F16D0A2F57C4290429C
:1058D40012D002F5806290420ED002F580629042AE
:1058E4000AD0114A904207D002F58062904203D058
:1058F40002F58062904203D1CA6823F440731343D3
:105904004A6923F08003134303608B68C3620B6806
:105914008362044B984204BF0B6903630123436110
:10592400704700BF000001400040014010B504462C
:1059340030B390F83D3003F0FF021BB980F83C20EF
:1059440001F0ECFA0223206884F83D30211DFFF7B2
:105954009FFF012384F84630002084F83E3084F809
:105964003F3084F8403084F8413084F8423084F881
:10597400433084F8443084F8453084F83D3010BD19
:105984000120FCE770477047026802F10C0353E8FA
:10599400003F23F490730C3242E80031026800297E
:1059A400F2D102F1140353E8003F23F0010302F1A2
:1059B400140C4CE800310029F3D1036B012B0BD1FB
:1059C40002F10C0353E8003F23F0100302F10C0C26
:1059D4004CE800310029F3D1202380F83E30002325
:1059E4000363704790F83D30202B18D1A9B1A2B1C0
:1059F40090F83C30012B12D0C28401628284016889
:105A040000232122036480F83C3080F83D20CA68DA
:105A140042F08002CA601846704701207047022095
:105A2400704708B5806B0023C385C38401F004FB71
:105A340008BD704707B58168836A0268B1F5805F65
:105A44003ED1016900293ED15268C2F3080223F80D
:105A5400022B8362C38D013B9BB2C385002B2CD1E7
:105A64000268D16821F02001D160D16821F48071ED
:105A7400D160516921F001015161202280F83E205A
:105A8400026B012A026828D1036302F10C0353E874
:105A9400003F23F0100302F10C0C4CE80031002904
:105AA400F3D11368DB0605D501911368019353689C
:105AB4000193019B818DFFF7BCFF03B05DF804FBEC
:105AC40039B9016929B95268D2B21A70836A0133AB
